No.     Time           Source                Destination           Protocol Length Info
      1 0.000000       00:00:00_00:00:00     00:00:00_00:00:00     AMS      92     ADS Device Notification Request

Frame 1: 92 bytes on wire (736 bits), 92 bytes captured (736 bits)
    Encapsulation type: Ethernet (1)
    Arrival Time: May 10, 2180 10:30:29.544127688 Eastern Daylight Time
    UTC Arrival Time: May 10, 2180 14:30:29.544127688 UTC
    Epoch Arrival Time: 6638250629.544127688
    [Time shift for this packet: 0.000000000 seconds]
    [Time delta from previous captured frame: 0.000000000 seconds]
    [Time delta from previous displayed frame: 0.000000000 seconds]
    [Time since reference or first frame: 0.000000000 seconds]
    Frame Number: 1
    Frame Length: 92 bytes (736 bits)
    Capture Length: 92 bytes (736 bits)
    [Frame is marked: False]
    [Frame is ignored: False]
    [Protocols in frame: eth:ethertype:ecatf:ams]
Ethernet II, Src: 00:00:00_00:00:00 (00:00:00:00:00:00), Dst: 00:00:00_00:00:00 (00:00:00:00:00:00)
    Destination: 00:00:00_00:00:00 (00:00:00:00:00:00)
        .... ..0. .... .... .... .... = LG bit: Globally unique address (factory default)
        .... ...0 .... .... .... .... = IG bit: Individual address (unicast)
    Source: 00:00:00_00:00:00 (00:00:00:00:00:00)
        .... ..0. .... .... .... .... = LG bit: Globally unique address (factory default)
        .... ...0 .... .... .... .... = IG bit: Individual address (unicast)
    Type: EtherCAT frame (0x88a4)
    [Stream index: 0]
EtherCAT frame header
    .... .000 0100 1100 = Length: 0x04c
    .... 0... .... .... = Reserved: Valid (0x0)
    0010 .... .... .... = Type: ADS (0x2)
AMS
    AMS Target Net Id: 192.168.209.160.1.1
    AMS Target port: 33039
    AMS Sender Net Id: 39.120.71.102.1.1
    AMS Sender port: 132
    CmdId: ADS Device Notification (8)
    StateFlags: 0x0004
        .... .... .... ...0 = RESPONSE: Not set
        .... .... .... ..0. = NO RETURN: Not set
        .... .... .... .1.. = ADS COMMAND: Set
        .... .... .... 0... = SYSTEM COMMAND: Not set
        .... .... ...0 .... = HIGH PRIORITY COMMAND: Not set
        .... .... ..0. .... = TIMESTAMP ADDED: Not set
        .... .... .0.. .... = UDP COMMAND: Not set
        .... .... 0... .... = INIT COMMAND: Not set
        0... .... .... .... = BROADCAST: Not set
    cbData: 44
    ErrorCode: NO ERROR (0x00000000)
    InvokeId: 0x00000000
    ADS Device Notification Request
        CbLength: 40
        Count of Stamps: 1

0000  00 00 00 00 00 00 00 00 00 00 00 00 88 a4 4c 20   ..............L 
0010  c0 a8 d1 a0 01 01 0f 81 27 78 47 66 01 01 84 00   ........'xGf....
0020  08 00 04 00 2c 00 00 00 00 00 00 00 00 00 00 00   ....,...........
0030  28 00 00 00 01 00 00 00 30 b4 a7 9b 7d 18 dc 01   (.......0...}...
0040  01 00 00 00 0f 00 00 00 10 00 00 00 01 00 00 00   ................
0050  0a 00 00 00 00 00 00 00 00 00 00 00               ............

No.     Time           Source                Destination           Protocol Length Info
      2 0.038400       00:00:00_00:00:00     00:00:00_00:00:00     AMS      48     ADS Read State Request

Frame 2: 48 bytes on wire (384 bits), 48 bytes captured (384 bits)
    Encapsulation type: Ethernet (1)
    Arrival Time: May 10, 2180 10:30:29.582527688 Eastern Daylight Time
    UTC Arrival Time: May 10, 2180 14:30:29.582527688 UTC
    Epoch Arrival Time: 6638250629.582527688
    [Time shift for this packet: 0.000000000 seconds]
    [Time delta from previous captured frame: 0.038400000 seconds]
    [Time delta from previous displayed frame: 0.038400000 seconds]
    [Time since reference or first frame: 0.038400000 seconds]
    Frame Number: 2
    Frame Length: 48 bytes (384 bits)
    Capture Length: 48 bytes (384 bits)
    [Frame is marked: False]
    [Frame is ignored: False]
    [Protocols in frame: eth:ethertype:ecatf:ams]
Ethernet II, Src: 00:00:00_00:00:00 (00:00:00:00:00:00), Dst: 00:00:00_00:00:00 (00:00:00:00:00:00)
    Destination: 00:00:00_00:00:00 (00:00:00:00:00:00)
        .... ..0. .... .... .... .... = LG bit: Globally unique address (factory default)
        .... ...0 .... .... .... .... = IG bit: Individual address (unicast)
    Source: 00:00:00_00:00:00 (00:00:00:00:00:00)
        .... ..0. .... .... .... .... = LG bit: Globally unique address (factory default)
        .... ...0 .... .... .... .... = IG bit: Individual address (unicast)
    Type: EtherCAT frame (0x88a4)
    [Stream index: 0]
EtherCAT frame header
    .... .000 0010 0000 = Length: 0x020
    .... 0... .... .... = Reserved: Valid (0x0)
    0010 .... .... .... = Type: ADS (0x2)
AMS
    AMS Target Net Id: 192.168.209.160.1.1
    AMS Target port: 10000
    AMS Sender Net Id: 192.168.209.160.1.1
    AMS Sender port: 32941
    CmdId: ADS Read State (4)
    StateFlags: 0x0004
        .... .... .... ...0 = RESPONSE: Not set
        .... .... .... ..0. = NO RETURN: Not set
        .... .... .... .1.. = ADS COMMAND: Set
        .... .... .... 0... = SYSTEM COMMAND: Not set
        .... .... ...0 .... = HIGH PRIORITY COMMAND: Not set
        .... .... ..0. .... = TIMESTAMP ADDED: Not set
        .... .... .0.. .... = UDP COMMAND: Not set
        .... .... 0... .... = INIT COMMAND: Not set
        0... .... .... .... = BROADCAST: Not set
    cbData: 0
    ErrorCode: NO ERROR (0x00000000)
    InvokeId: 0x000006a0

0000  00 00 00 00 00 00 00 00 00 00 00 00 88 a4 20 20   ..............  
0010  c0 a8 d1 a0 01 01 10 27 c0 a8 d1 a0 01 01 ad 80   .......'........
0020  04 00 04 00 00 00 00 00 00 00 00 00 a0 06 00 00   ................

No.     Time           Source                Destination           Protocol Length Info
      3 0.038400       00:00:00_00:00:00     00:00:00_00:00:00     AMS      48     ADS Read State Request

Frame 3: 48 bytes on wire (384 bits), 48 bytes captured (384 bits)
    Encapsulation type: Ethernet (1)
    Arrival Time: May 10, 2180 10:30:29.582527688 Eastern Daylight Time
    UTC Arrival Time: May 10, 2180 14:30:29.582527688 UTC
    Epoch Arrival Time: 6638250629.582527688
    [Time shift for this packet: 0.000000000 seconds]
    [Time delta from previous captured frame: 0.000000000 seconds]
    [Time delta from previous displayed frame: 0.000000000 seconds]
    [Time since reference or first frame: 0.038400000 seconds]
    Frame Number: 3
    Frame Length: 48 bytes (384 bits)
    Capture Length: 48 bytes (384 bits)
    [Frame is marked: False]
    [Frame is ignored: False]
    [Protocols in frame: eth:ethertype:ecatf:ams]
Ethernet II, Src: 00:00:00_00:00:00 (00:00:00:00:00:00), Dst: 00:00:00_00:00:00 (00:00:00:00:00:00)
    Destination: 00:00:00_00:00:00 (00:00:00:00:00:00)
        .... ..0. .... .... .... .... = LG bit: Globally unique address (factory default)
        .... ...0 .... .... .... .... = IG bit: Individual address (unicast)
    Source: 00:00:00_00:00:00 (00:00:00:00:00:00)
        .... ..0. .... .... .... .... = LG bit: Globally unique address (factory default)
        .... ...0 .... .... .... .... = IG bit: Individual address (unicast)
    Type: EtherCAT frame (0x88a4)
    [Stream index: 0]
EtherCAT frame header
    .... .000 0010 0000 = Length: 0x020
    .... 0... .... .... = Reserved: Valid (0x0)
    0010 .... .... .... = Type: ADS (0x2)
AMS
    AMS Target Net Id: 39.120.71.102.1.1
    AMS Target port: 10000
    AMS Sender Net Id: 192.168.209.160.1.1
    AMS Sender port: 33031
    CmdId: ADS Read State (4)
    StateFlags: 0x0004
        .... .... .... ...0 = RESPONSE: Not set
        .... .... .... ..0. = NO RETURN: Not set
        .... .... .... .1.. = ADS COMMAND: Set
        .... .... .... 0... = SYSTEM COMMAND: Not set
        .... .... ...0 .... = HIGH PRIORITY COMMAND: Not set
        .... .... ..0. .... = TIMESTAMP ADDED: Not set
        .... .... .0.. .... = UDP COMMAND: Not set
        .... .... 0... .... = INIT COMMAND: Not set
        0... .... .... .... = BROADCAST: Not set
    cbData: 0
    ErrorCode: NO ERROR (0x00000000)
    InvokeId: 0x0000032a

0000  00 00 00 00 00 00 00 00 00 00 00 00 88 a4 20 20   ..............  
0010  27 78 47 66 01 01 10 27 c0 a8 d1 a0 01 01 07 81   'xGf...'........
0020  04 00 04 00 00 00 00 00 00 00 00 00 2a 03 00 00   ............*...

No.     Time           Source                Destination           Protocol Length Info
      4 0.048411       00:00:00_00:00:00     00:00:00_00:00:00     AMS      56     ADS Read State Response

Frame 4: 56 bytes on wire (448 bits), 56 bytes captured (448 bits)
    Encapsulation type: Ethernet (1)
    Arrival Time: May 10, 2180 10:30:29.592538688 Eastern Daylight Time
    UTC Arrival Time: May 10, 2180 14:30:29.592538688 UTC
    Epoch Arrival Time: 6638250629.592538688
    [Time shift for this packet: 0.000000000 seconds]
    [Time delta from previous captured frame: 0.010011000 seconds]
    [Time delta from previous displayed frame: 0.010011000 seconds]
    [Time since reference or first frame: 0.048411000 seconds]
    Frame Number: 4
    Frame Length: 56 bytes (448 bits)
    Capture Length: 56 bytes (448 bits)
    [Frame is marked: False]
    [Frame is ignored: False]
    [Protocols in frame: eth:ethertype:ecatf:ams]
Ethernet II, Src: 00:00:00_00:00:00 (00:00:00:00:00:00), Dst: 00:00:00_00:00:00 (00:00:00:00:00:00)
    Destination: 00:00:00_00:00:00 (00:00:00:00:00:00)
        .... ..0. .... .... .... .... = LG bit: Globally unique address (factory default)
        .... ...0 .... .... .... .... = IG bit: Individual address (unicast)
    Source: 00:00:00_00:00:00 (00:00:00:00:00:00)
        .... ..0. .... .... .... .... = LG bit: Globally unique address (factory default)
        .... ...0 .... .... .... .... = IG bit: Individual address (unicast)
    Type: EtherCAT frame (0x88a4)
    [Stream index: 0]
EtherCAT frame header
    .... .000 0010 1000 = Length: 0x028
    .... 0... .... .... = Reserved: Valid (0x0)
    0010 .... .... .... = Type: ADS (0x2)
AMS
    AMS Target Net Id: 192.168.209.160.1.1
    AMS Target port: 32941
    AMS Sender Net Id: 192.168.209.160.1.1
    AMS Sender port: 10000
    CmdId: ADS Read State (4)
    StateFlags: 0x0005
        .... .... .... ...1 = RESPONSE: Set
        .... .... .... ..0. = NO RETURN: Not set
        .... .... .... .1.. = ADS COMMAND: Set
        .... .... .... 0... = SYSTEM COMMAND: Not set
        .... .... ...0 .... = HIGH PRIORITY COMMAND: Not set
        .... .... ..0. .... = TIMESTAMP ADDED: Not set
        .... .... .0.. .... = UDP COMMAND: Not set
        .... .... 0... .... = INIT COMMAND: Not set
        0... .... .... .... = BROADCAST: Not set
    cbData: 8
    ErrorCode: NO ERROR (0x00000000)
    InvokeId: 0x000006a0
    ADS Read State Response
        Result: NO ERROR (0x00000000)
        AdsState: 0x000f
        DeviceState: 0x0001

0000  00 00 00 00 00 00 00 00 00 00 00 00 88 a4 28 20   ..............( 
0010  c0 a8 d1 a0 01 01 ad 80 c0 a8 d1 a0 01 01 10 27   ...............'
0020  04 00 05 00 08 00 00 00 00 00 00 00 a0 06 00 00   ................
0030  00 00 00 00 0f 00 01 00                           ........

No.     Time           Source                Destination           Protocol Length Info
      5 0.183468       00:00:00_00:00:00     00:00:00_00:00:00     AMS      56     ADS Read State Response

Frame 5: 56 bytes on wire (448 bits), 56 bytes captured (448 bits)
    Encapsulation type: Ethernet (1)
    Arrival Time: May 10, 2180 10:30:29.727595688 Eastern Daylight Time
    UTC Arrival Time: May 10, 2180 14:30:29.727595688 UTC
    Epoch Arrival Time: 6638250629.727595688
    [Time shift for this packet: 0.000000000 seconds]
    [Time delta from previous captured frame: 0.135057000 seconds]
    [Time delta from previous displayed frame: 0.135057000 seconds]
    [Time since reference or first frame: 0.183468000 seconds]
    Frame Number: 5
    Frame Length: 56 bytes (448 bits)
    Capture Length: 56 bytes (448 bits)
    [Frame is marked: False]
    [Frame is ignored: False]
    [Protocols in frame: eth:ethertype:ecatf:ams]
Ethernet II, Src: 00:00:00_00:00:00 (00:00:00:00:00:00), Dst: 00:00:00_00:00:00 (00:00:00:00:00:00)
    Destination: 00:00:00_00:00:00 (00:00:00:00:00:00)
        .... ..0. .... .... .... .... = LG bit: Globally unique address (factory default)
        .... ...0 .... .... .... .... = IG bit: Individual address (unicast)
    Source: 00:00:00_00:00:00 (00:00:00:00:00:00)
        .... ..0. .... .... .... .... = LG bit: Globally unique address (factory default)
        .... ...0 .... .... .... .... = IG bit: Individual address (unicast)
    Type: EtherCAT frame (0x88a4)
    [Stream index: 0]
EtherCAT frame header
    .... .000 0010 1000 = Length: 0x028
    .... 0... .... .... = Reserved: Valid (0x0)
    0010 .... .... .... = Type: ADS (0x2)
AMS
    AMS Target Net Id: 192.168.209.160.1.1
    AMS Target port: 33031
    AMS Sender Net Id: 39.120.71.102.1.1
    AMS Sender port: 10000
    CmdId: ADS Read State (4)
    StateFlags: 0x0005
        .... .... .... ...1 = RESPONSE: Set
        .... .... .... ..0. = NO RETURN: Not set
        .... .... .... .1.. = ADS COMMAND: Set
        .... .... .... 0... = SYSTEM COMMAND: Not set
        .... .... ...0 .... = HIGH PRIORITY COMMAND: Not set
        .... .... ..0. .... = TIMESTAMP ADDED: Not set
        .... .... .0.. .... = UDP COMMAND: Not set
        .... .... 0... .... = INIT COMMAND: Not set
        0... .... .... .... = BROADCAST: Not set
    cbData: 8
    ErrorCode: NO ERROR (0x00000000)
    InvokeId: 0x0000032a
    ADS Read State Response
        Result: NO ERROR (0x00000000)
        AdsState: 0x0005
        DeviceState: 0x0001

0000  00 00 00 00 00 00 00 00 00 00 00 00 88 a4 28 20   ..............( 
0010  c0 a8 d1 a0 01 01 07 81 27 78 47 66 01 01 10 27   ........'xGf...'
0020  04 00 05 00 08 00 00 00 00 00 00 00 2a 03 00 00   ............*...
0030  00 00 00 00 05 00 01 00                           ........

No.     Time           Source                Destination           Protocol Length Info
      6 5.074594       00:00:00_00:00:00     00:00:00_00:00:00     AMS      92     ADS Device Notification Request

Frame 6: 92 bytes on wire (736 bits), 92 bytes captured (736 bits)
    Encapsulation type: Ethernet (1)
    Arrival Time: May 10, 2180 10:30:34.618721688 Eastern Daylight Time
    UTC Arrival Time: May 10, 2180 14:30:34.618721688 UTC
    Epoch Arrival Time: 6638250634.618721688
    [Time shift for this packet: 0.000000000 seconds]
    [Time delta from previous captured frame: 4.891126000 seconds]
    [Time delta from previous displayed frame: 4.891126000 seconds]
    [Time since reference or first frame: 5.074594000 seconds]
    Frame Number: 6
    Frame Length: 92 bytes (736 bits)
    Capture Length: 92 bytes (736 bits)
    [Frame is marked: False]
    [Frame is ignored: False]
    [Protocols in frame: eth:ethertype:ecatf:ams]
Ethernet II, Src: 00:00:00_00:00:00 (00:00:00:00:00:00), Dst: 00:00:00_00:00:00 (00:00:00:00:00:00)
    Destination: 00:00:00_00:00:00 (00:00:00:00:00:00)
        .... ..0. .... .... .... .... = LG bit: Globally unique address (factory default)
        .... ...0 .... .... .... .... = IG bit: Individual address (unicast)
    Source: 00:00:00_00:00:00 (00:00:00:00:00:00)
        .... ..0. .... .... .... .... = LG bit: Globally unique address (factory default)
        .... ...0 .... .... .... .... = IG bit: Individual address (unicast)
    Type: EtherCAT frame (0x88a4)
    [Stream index: 0]
EtherCAT frame header
    .... .000 0100 1100 = Length: 0x04c
    .... 0... .... .... = Reserved: Valid (0x0)
    0010 .... .... .... = Type: ADS (0x2)
AMS
    AMS Target Net Id: 192.168.209.160.1.1
    AMS Target port: 33039
    AMS Sender Net Id: 39.120.71.102.1.1
    AMS Sender port: 132
    CmdId: ADS Device Notification (8)
    StateFlags: 0x0004
        .... .... .... ...0 = RESPONSE: Not set
        .... .... .... ..0. = NO RETURN: Not set
        .... .... .... .1.. = ADS COMMAND: Set
        .... .... .... 0... = SYSTEM COMMAND: Not set
        .... .... ...0 .... = HIGH PRIORITY COMMAND: Not set
        .... .... ..0. .... = TIMESTAMP ADDED: Not set
        .... .... .0.. .... = UDP COMMAND: Not set
        .... .... 0... .... = INIT COMMAND: Not set
        0... .... .... .... = BROADCAST: Not set
    cbData: 44
    ErrorCode: NO ERROR (0x00000000)
    InvokeId: 0x00000000
    ADS Device Notification Request
        CbLength: 40
        Count of Stamps: 1

0000  00 00 00 00 00 00 00 00 00 00 00 00 88 a4 4c 20   ..............L 
0010  c0 a8 d1 a0 01 01 0f 81 27 78 47 66 01 01 84 00   ........'xGf....
0020  08 00 04 00 2c 00 00 00 00 00 00 00 00 00 00 00   ....,...........
0030  28 00 00 00 01 00 00 00 f0 37 f5 9b 7d 18 dc 01   (........7..}...
0040  01 00 00 00 0f 00 00 00 10 00 00 00 01 00 00 00   ................
0050  0a 00 00 00 00 00 00 00 00 00 00 00               ............

No.     Time           Source                Destination           Protocol Length Info
      7 5.084518       00:00:00_00:00:00     00:00:00_00:00:00     AMS      48     ADS Read State Request

Frame 7: 48 bytes on wire (384 bits), 48 bytes captured (384 bits)
    Encapsulation type: Ethernet (1)
    Arrival Time: May 10, 2180 10:30:34.628645688 Eastern Daylight Time
    UTC Arrival Time: May 10, 2180 14:30:34.628645688 UTC
    Epoch Arrival Time: 6638250634.628645688
    [Time shift for this packet: 0.000000000 seconds]
    [Time delta from previous captured frame: 0.009924000 seconds]
    [Time delta from previous displayed frame: 0.009924000 seconds]
    [Time since reference or first frame: 5.084518000 seconds]
    Frame Number: 7
    Frame Length: 48 bytes (384 bits)
    Capture Length: 48 bytes (384 bits)
    [Frame is marked: False]
    [Frame is ignored: False]
    [Protocols in frame: eth:ethertype:ecatf:ams]
Ethernet II, Src: 00:00:00_00:00:00 (00:00:00:00:00:00), Dst: 00:00:00_00:00:00 (00:00:00:00:00:00)
    Destination: 00:00:00_00:00:00 (00:00:00:00:00:00)
        .... ..0. .... .... .... .... = LG bit: Globally unique address (factory default)
        .... ...0 .... .... .... .... = IG bit: Individual address (unicast)
    Source: 00:00:00_00:00:00 (00:00:00:00:00:00)
        .... ..0. .... .... .... .... = LG bit: Globally unique address (factory default)
        .... ...0 .... .... .... .... = IG bit: Individual address (unicast)
    Type: EtherCAT frame (0x88a4)
    [Stream index: 0]
EtherCAT frame header
    .... .000 0010 0000 = Length: 0x020
    .... 0... .... .... = Reserved: Valid (0x0)
    0010 .... .... .... = Type: ADS (0x2)
AMS
    AMS Target Net Id: 39.120.71.102.1.1
    AMS Target port: 10000
    AMS Sender Net Id: 192.168.209.160.1.1
    AMS Sender port: 33031
    CmdId: ADS Read State (4)
    StateFlags: 0x0004
        .... .... .... ...0 = RESPONSE: Not set
        .... .... .... ..0. = NO RETURN: Not set
        .... .... .... .1.. = ADS COMMAND: Set
        .... .... .... 0... = SYSTEM COMMAND: Not set
        .... .... ...0 .... = HIGH PRIORITY COMMAND: Not set
        .... .... ..0. .... = TIMESTAMP ADDED: Not set
        .... .... .0.. .... = UDP COMMAND: Not set
        .... .... 0... .... = INIT COMMAND: Not set
        0... .... .... .... = BROADCAST: Not set
    cbData: 0
    ErrorCode: NO ERROR (0x00000000)
    InvokeId: 0x0000032b

0000  00 00 00 00 00 00 00 00 00 00 00 00 88 a4 20 20   ..............  
0010  27 78 47 66 01 01 10 27 c0 a8 d1 a0 01 01 07 81   'xGf...'........
0020  04 00 04 00 00 00 00 00 00 00 00 00 2b 03 00 00   ............+...

No.     Time           Source                Destination           Protocol Length Info
      8 5.084518       00:00:00_00:00:00     00:00:00_00:00:00     AMS      48     ADS Read State Request

Frame 8: 48 bytes on wire (384 bits), 48 bytes captured (384 bits)
    Encapsulation type: Ethernet (1)
    Arrival Time: May 10, 2180 10:30:34.628645688 Eastern Daylight Time
    UTC Arrival Time: May 10, 2180 14:30:34.628645688 UTC
    Epoch Arrival Time: 6638250634.628645688
    [Time shift for this packet: 0.000000000 seconds]
    [Time delta from previous captured frame: 0.000000000 seconds]
    [Time delta from previous displayed frame: 0.000000000 seconds]
    [Time since reference or first frame: 5.084518000 seconds]
    Frame Number: 8
    Frame Length: 48 bytes (384 bits)
    Capture Length: 48 bytes (384 bits)
    [Frame is marked: False]
    [Frame is ignored: False]
    [Protocols in frame: eth:ethertype:ecatf:ams]
Ethernet II, Src: 00:00:00_00:00:00 (00:00:00:00:00:00), Dst: 00:00:00_00:00:00 (00:00:00:00:00:00)
    Destination: 00:00:00_00:00:00 (00:00:00:00:00:00)
        .... ..0. .... .... .... .... = LG bit: Globally unique address (factory default)
        .... ...0 .... .... .... .... = IG bit: Individual address (unicast)
    Source: 00:00:00_00:00:00 (00:00:00:00:00:00)
        .... ..0. .... .... .... .... = LG bit: Globally unique address (factory default)
        .... ...0 .... .... .... .... = IG bit: Individual address (unicast)
    Type: EtherCAT frame (0x88a4)
    [Stream index: 0]
EtherCAT frame header
    .... .000 0010 0000 = Length: 0x020
    .... 0... .... .... = Reserved: Valid (0x0)
    0010 .... .... .... = Type: ADS (0x2)
AMS
    AMS Target Net Id: 192.168.209.160.1.1
    AMS Target port: 10000
    AMS Sender Net Id: 192.168.209.160.1.1
    AMS Sender port: 32941
    CmdId: ADS Read State (4)
    StateFlags: 0x0004
        .... .... .... ...0 = RESPONSE: Not set
        .... .... .... ..0. = NO RETURN: Not set
        .... .... .... .1.. = ADS COMMAND: Set
        .... .... .... 0... = SYSTEM COMMAND: Not set
        .... .... ...0 .... = HIGH PRIORITY COMMAND: Not set
        .... .... ..0. .... = TIMESTAMP ADDED: Not set
        .... .... .0.. .... = UDP COMMAND: Not set
        .... .... 0... .... = INIT COMMAND: Not set
        0... .... .... .... = BROADCAST: Not set
    cbData: 0
    ErrorCode: NO ERROR (0x00000000)
    InvokeId: 0x000006a1

0000  00 00 00 00 00 00 00 00 00 00 00 00 88 a4 20 20   ..............  
0010  c0 a8 d1 a0 01 01 10 27 c0 a8 d1 a0 01 01 ad 80   .......'........
0020  04 00 04 00 00 00 00 00 00 00 00 00 a1 06 00 00   ................

No.     Time           Source                Destination           Protocol Length Info
      9 5.094470       00:00:00_00:00:00     00:00:00_00:00:00     AMS      56     ADS Read State Response

Frame 9: 56 bytes on wire (448 bits), 56 bytes captured (448 bits)
    Encapsulation type: Ethernet (1)
    Arrival Time: May 10, 2180 10:30:34.638597688 Eastern Daylight Time
    UTC Arrival Time: May 10, 2180 14:30:34.638597688 UTC
    Epoch Arrival Time: 6638250634.638597688
    [Time shift for this packet: 0.000000000 seconds]
    [Time delta from previous captured frame: 0.009952000 seconds]
    [Time delta from previous displayed frame: 0.009952000 seconds]
    [Time since reference or first frame: 5.094470000 seconds]
    Frame Number: 9
    Frame Length: 56 bytes (448 bits)
    Capture Length: 56 bytes (448 bits)
    [Frame is marked: False]
    [Frame is ignored: False]
    [Protocols in frame: eth:ethertype:ecatf:ams]
Ethernet II, Src: 00:00:00_00:00:00 (00:00:00:00:00:00), Dst: 00:00:00_00:00:00 (00:00:00:00:00:00)
    Destination: 00:00:00_00:00:00 (00:00:00:00:00:00)
        .... ..0. .... .... .... .... = LG bit: Globally unique address (factory default)
        .... ...0 .... .... .... .... = IG bit: Individual address (unicast)
    Source: 00:00:00_00:00:00 (00:00:00:00:00:00)
        .... ..0. .... .... .... .... = LG bit: Globally unique address (factory default)
        .... ...0 .... .... .... .... = IG bit: Individual address (unicast)
    Type: EtherCAT frame (0x88a4)
    [Stream index: 0]
EtherCAT frame header
    .... .000 0010 1000 = Length: 0x028
    .... 0... .... .... = Reserved: Valid (0x0)
    0010 .... .... .... = Type: ADS (0x2)
AMS
    AMS Target Net Id: 192.168.209.160.1.1
    AMS Target port: 32941
    AMS Sender Net Id: 192.168.209.160.1.1
    AMS Sender port: 10000
    CmdId: ADS Read State (4)
    StateFlags: 0x0005
        .... .... .... ...1 = RESPONSE: Set
        .... .... .... ..0. = NO RETURN: Not set
        .... .... .... .1.. = ADS COMMAND: Set
        .... .... .... 0... = SYSTEM COMMAND: Not set
        .... .... ...0 .... = HIGH PRIORITY COMMAND: Not set
        .... .... ..0. .... = TIMESTAMP ADDED: Not set
        .... .... .0.. .... = UDP COMMAND: Not set
        .... .... 0... .... = INIT COMMAND: Not set
        0... .... .... .... = BROADCAST: Not set
    cbData: 8
    ErrorCode: NO ERROR (0x00000000)
    InvokeId: 0x000006a1
    ADS Read State Response
        Result: NO ERROR (0x00000000)
        AdsState: 0x000f
        DeviceState: 0x0001

0000  00 00 00 00 00 00 00 00 00 00 00 00 88 a4 28 20   ..............( 
0010  c0 a8 d1 a0 01 01 ad 80 c0 a8 d1 a0 01 01 10 27   ...............'
0020  04 00 05 00 08 00 00 00 00 00 00 00 a1 06 00 00   ................
0030  00 00 00 00 0f 00 01 00                           ........

No.     Time           Source                Destination           Protocol Length Info
     10 5.299791       00:00:00_00:00:00     00:00:00_00:00:00     AMS      56     ADS Read State Response

Frame 10: 56 bytes on wire (448 bits), 56 bytes captured (448 bits)
    Encapsulation type: Ethernet (1)
    Arrival Time: May 10, 2180 10:30:34.843918688 Eastern Daylight Time
    UTC Arrival Time: May 10, 2180 14:30:34.843918688 UTC
    Epoch Arrival Time: 6638250634.843918688
    [Time shift for this packet: 0.000000000 seconds]
    [Time delta from previous captured frame: 0.205321000 seconds]
    [Time delta from previous displayed frame: 0.205321000 seconds]
    [Time since reference or first frame: 5.299791000 seconds]
    Frame Number: 10
    Frame Length: 56 bytes (448 bits)
    Capture Length: 56 bytes (448 bits)
    [Frame is marked: False]
    [Frame is ignored: False]
    [Protocols in frame: eth:ethertype:ecatf:ams]
Ethernet II, Src: 00:00:00_00:00:00 (00:00:00:00:00:00), Dst: 00:00:00_00:00:00 (00:00:00:00:00:00)
    Destination: 00:00:00_00:00:00 (00:00:00:00:00:00)
        .... ..0. .... .... .... .... = LG bit: Globally unique address (factory default)
        .... ...0 .... .... .... .... = IG bit: Individual address (unicast)
    Source: 00:00:00_00:00:00 (00:00:00:00:00:00)
        .... ..0. .... .... .... .... = LG bit: Globally unique address (factory default)
        .... ...0 .... .... .... .... = IG bit: Individual address (unicast)
    Type: EtherCAT frame (0x88a4)
    [Stream index: 0]
EtherCAT frame header
    .... .000 0010 1000 = Length: 0x028
    .... 0... .... .... = Reserved: Valid (0x0)
    0010 .... .... .... = Type: ADS (0x2)
AMS
    AMS Target Net Id: 192.168.209.160.1.1
    AMS Target port: 33031
    AMS Sender Net Id: 39.120.71.102.1.1
    AMS Sender port: 10000
    CmdId: ADS Read State (4)
    StateFlags: 0x0005
        .... .... .... ...1 = RESPONSE: Set
        .... .... .... ..0. = NO RETURN: Not set
        .... .... .... .1.. = ADS COMMAND: Set
        .... .... .... 0... = SYSTEM COMMAND: Not set
        .... .... ...0 .... = HIGH PRIORITY COMMAND: Not set
        .... .... ..0. .... = TIMESTAMP ADDED: Not set
        .... .... .0.. .... = UDP COMMAND: Not set
        .... .... 0... .... = INIT COMMAND: Not set
        0... .... .... .... = BROADCAST: Not set
    cbData: 8
    ErrorCode: NO ERROR (0x00000000)
    InvokeId: 0x0000032b
    ADS Read State Response
        Result: NO ERROR (0x00000000)
        AdsState: 0x0005
        DeviceState: 0x0001

0000  00 00 00 00 00 00 00 00 00 00 00 00 88 a4 28 20   ..............( 
0010  c0 a8 d1 a0 01 01 07 81 27 78 47 66 01 01 10 27   ........'xGf...'
0020  04 00 05 00 08 00 00 00 00 00 00 00 2b 03 00 00   ............+...
0030  00 00 00 00 05 00 01 00                           ........

No.     Time           Source                Destination           Protocol Length Info
     11 7.741181       00:00:00_00:00:00     00:00:00_00:00:00     AMS      60     ADS Read Request

Frame 11: 60 bytes on wire (480 bits), 60 bytes captured (480 bits)
    Encapsulation type: Ethernet (1)
    Arrival Time: May 10, 2180 10:30:37.285308688 Eastern Daylight Time
    UTC Arrival Time: May 10, 2180 14:30:37.285308688 UTC
    Epoch Arrival Time: 6638250637.285308688
    [Time shift for this packet: 0.000000000 seconds]
    [Time delta from previous captured frame: 2.441390000 seconds]
    [Time delta from previous displayed frame: 2.441390000 seconds]
    [Time since reference or first frame: 7.741181000 seconds]
    Frame Number: 11
    Frame Length: 60 bytes (480 bits)
    Capture Length: 60 bytes (480 bits)
    [Frame is marked: False]
    [Frame is ignored: False]
    [Protocols in frame: eth:ethertype:ecatf:ams]
Ethernet II, Src: 00:00:00_00:00:00 (00:00:00:00:00:00), Dst: 00:00:00_00:00:00 (00:00:00:00:00:00)
    Destination: 00:00:00_00:00:00 (00:00:00:00:00:00)
        .... ..0. .... .... .... .... = LG bit: Globally unique address (factory default)
        .... ...0 .... .... .... .... = IG bit: Individual address (unicast)
    Source: 00:00:00_00:00:00 (00:00:00:00:00:00)
        .... ..0. .... .... .... .... = LG bit: Globally unique address (factory default)
        .... ...0 .... .... .... .... = IG bit: Individual address (unicast)
    Type: EtherCAT frame (0x88a4)
    [Stream index: 0]
EtherCAT frame header
    .... .000 0010 1100 = Length: 0x02c
    .... 0... .... .... = Reserved: Valid (0x0)
    0010 .... .... .... = Type: ADS (0x2)
AMS
    AMS Target Net Id: 192.168.209.160.1.1
    AMS Target port: 10000
    AMS Sender Net Id: 192.168.209.160.1.1
    AMS Sender port: 32789
    CmdId: ADS Read (2)
    StateFlags: 0x0004
        .... .... .... ...0 = RESPONSE: Not set
        .... .... .... ..0. = NO RETURN: Not set
        .... .... .... .1.. = ADS COMMAND: Set
        .... .... .... 0... = SYSTEM COMMAND: Not set
        .... .... ...0 .... = HIGH PRIORITY COMMAND: Not set
        .... .... ..0. .... = TIMESTAMP ADDED: Not set
        .... .... .0.. .... = UDP COMMAND: Not set
        .... .... 0... .... = INIT COMMAND: Not set
        0... .... .... .... = BROADCAST: Not set
    cbData: 12
    ErrorCode: NO ERROR (0x00000000)
    InvokeId: 0x00008eab
    ADS Read Request
        IndexGroup: 0x000000f0
        IndexOffset: 0x00000000
        CbLength: 16

0000  00 00 00 00 00 00 00 00 00 00 00 00 88 a4 2c 20   .............., 
0010  c0 a8 d1 a0 01 01 10 27 c0 a8 d1 a0 01 01 15 80   .......'........
0020  02 00 04 00 0c 00 00 00 00 00 00 00 ab 8e 00 00   ................
0030  f0 00 00 00 00 00 00 00 10 00 00 00               ............

No.     Time           Source                Destination           Protocol Length Info
     12 7.752459       00:00:00_00:00:00     00:00:00_00:00:00     AMS      72     ADS Read Response

Frame 12: 72 bytes on wire (576 bits), 72 bytes captured (576 bits)
    Encapsulation type: Ethernet (1)
    Arrival Time: May 10, 2180 10:30:37.296586688 Eastern Daylight Time
    UTC Arrival Time: May 10, 2180 14:30:37.296586688 UTC
    Epoch Arrival Time: 6638250637.296586688
    [Time shift for this packet: 0.000000000 seconds]
    [Time delta from previous captured frame: 0.011278000 seconds]
    [Time delta from previous displayed frame: 0.011278000 seconds]
    [Time since reference or first frame: 7.752459000 seconds]
    Frame Number: 12
    Frame Length: 72 bytes (576 bits)
    Capture Length: 72 bytes (576 bits)
    [Frame is marked: False]
    [Frame is ignored: False]
    [Protocols in frame: eth:ethertype:ecatf:ams]
Ethernet II, Src: 00:00:00_00:00:00 (00:00:00:00:00:00), Dst: 00:00:00_00:00:00 (00:00:00:00:00:00)
    Destination: 00:00:00_00:00:00 (00:00:00:00:00:00)
        .... ..0. .... .... .... .... = LG bit: Globally unique address (factory default)
        .... ...0 .... .... .... .... = IG bit: Individual address (unicast)
    Source: 00:00:00_00:00:00 (00:00:00:00:00:00)
        .... ..0. .... .... .... .... = LG bit: Globally unique address (factory default)
        .... ...0 .... .... .... .... = IG bit: Individual address (unicast)
    Type: EtherCAT frame (0x88a4)
    [Stream index: 0]
EtherCAT frame header
    .... .000 0011 1000 = Length: 0x038
    .... 0... .... .... = Reserved: Valid (0x0)
    0010 .... .... .... = Type: ADS (0x2)
AMS
    AMS Target Net Id: 192.168.209.160.1.1
    AMS Target port: 32789
    AMS Sender Net Id: 192.168.209.160.1.1
    AMS Sender port: 10000
    CmdId: ADS Read (2)
    StateFlags: 0x0005
        .... .... .... ...1 = RESPONSE: Set
        .... .... .... ..0. = NO RETURN: Not set
        .... .... .... .1.. = ADS COMMAND: Set
        .... .... .... 0... = SYSTEM COMMAND: Not set
        .... .... ...0 .... = HIGH PRIORITY COMMAND: Not set
        .... .... ..0. .... = TIMESTAMP ADDED: Not set
        .... .... .0.. .... = UDP COMMAND: Not set
        .... .... 0... .... = INIT COMMAND: Not set
        0... .... .... .... = BROADCAST: Not set
    cbData: 24
    ErrorCode: NO ERROR (0x00000000)
    InvokeId: 0x00008eab
    ADS Read Response
        Result: NO ERROR (0x00000000)
        CbLength: 16
        Data

0000  00 00 00 00 00 00 00 00 00 00 00 00 88 a4 38 20   ..............8 
0010  c0 a8 d1 a0 01 01 15 80 c0 a8 d1 a0 01 01 10 27   ...............'
0020  02 00 05 00 18 00 00 00 00 00 00 00 ab 8e 00 00   ................
0030  00 00 00 00 10 00 00 00 0f 00 01 00 00 00 03 01   ................
0040  ba 0f 01 00 20 00 00 00                           .... ...

No.     Time           Source                Destination           Protocol Length Info
     13 7.762219       00:00:00_00:00:00     00:00:00_00:00:00     AMS      60     ADS Read Request

Frame 13: 60 bytes on wire (480 bits), 60 bytes captured (480 bits)
    Encapsulation type: Ethernet (1)
    Arrival Time: May 10, 2180 10:30:37.306346688 Eastern Daylight Time
    UTC Arrival Time: May 10, 2180 14:30:37.306346688 UTC
    Epoch Arrival Time: 6638250637.306346688
    [Time shift for this packet: 0.000000000 seconds]
    [Time delta from previous captured frame: 0.009760000 seconds]
    [Time delta from previous displayed frame: 0.009760000 seconds]
    [Time since reference or first frame: 7.762219000 seconds]
    Frame Number: 13
    Frame Length: 60 bytes (480 bits)
    Capture Length: 60 bytes (480 bits)
    [Frame is marked: False]
    [Frame is ignored: False]
    [Protocols in frame: eth:ethertype:ecatf:ams]
Ethernet II, Src: 00:00:00_00:00:00 (00:00:00:00:00:00), Dst: 00:00:00_00:00:00 (00:00:00:00:00:00)
    Destination: 00:00:00_00:00:00 (00:00:00:00:00:00)
        .... ..0. .... .... .... .... = LG bit: Globally unique address (factory default)
        .... ...0 .... .... .... .... = IG bit: Individual address (unicast)
    Source: 00:00:00_00:00:00 (00:00:00:00:00:00)
        .... ..0. .... .... .... .... = LG bit: Globally unique address (factory default)
        .... ...0 .... .... .... .... = IG bit: Individual address (unicast)
    Type: EtherCAT frame (0x88a4)
    [Stream index: 0]
EtherCAT frame header
    .... .000 0010 1100 = Length: 0x02c
    .... 0... .... .... = Reserved: Valid (0x0)
    0010 .... .... .... = Type: ADS (0x2)
AMS
    AMS Target Net Id: 192.168.209.160.1.1
    AMS Target port: 1
    AMS Sender Net Id: 192.168.209.160.1.1
    AMS Sender port: 32789
    CmdId: ADS Read (2)
    StateFlags: 0x0004
        .... .... .... ...0 = RESPONSE: Not set
        .... .... .... ..0. = NO RETURN: Not set
        .... .... .... .1.. = ADS COMMAND: Set
        .... .... .... 0... = SYSTEM COMMAND: Not set
        .... .... ...0 .... = HIGH PRIORITY COMMAND: Not set
        .... .... ..0. .... = TIMESTAMP ADDED: Not set
        .... .... .0.. .... = UDP COMMAND: Not set
        .... .... 0... .... = INIT COMMAND: Not set
        0... .... .... .... = BROADCAST: Not set
    cbData: 12
    ErrorCode: NO ERROR (0x00000000)
    InvokeId: 0x00008eac
    ADS Read Request
        IndexGroup: 0x00000003
        IndexOffset: 0x00000004
        CbLength: 1160

0000  00 00 00 00 00 00 00 00 00 00 00 00 88 a4 2c 20   .............., 
0010  c0 a8 d1 a0 01 01 01 00 c0 a8 d1 a0 01 01 15 80   ................
0020  02 00 04 00 0c 00 00 00 00 00 00 00 ac 8e 00 00   ................
0030  03 00 00 00 04 00 00 00 88 04 00 00               ............

No.     Time           Source                Destination           Protocol Length Info
     14 7.762219       00:00:00_00:00:00     00:00:00_00:00:00     AMS      56     ADS Read Response

Frame 14: 56 bytes on wire (448 bits), 56 bytes captured (448 bits)
    Encapsulation type: Ethernet (1)
    Arrival Time: May 10, 2180 10:30:37.306346688 Eastern Daylight Time
    UTC Arrival Time: May 10, 2180 14:30:37.306346688 UTC
    Epoch Arrival Time: 6638250637.306346688
    [Time shift for this packet: 0.000000000 seconds]
    [Time delta from previous captured frame: 0.000000000 seconds]
    [Time delta from previous displayed frame: 0.000000000 seconds]
    [Time since reference or first frame: 7.762219000 seconds]
    Frame Number: 14
    Frame Length: 56 bytes (448 bits)
    Capture Length: 56 bytes (448 bits)
    [Frame is marked: False]
    [Frame is ignored: False]
    [Protocols in frame: eth:ethertype:ecatf:ams]
Ethernet II, Src: 00:00:00_00:00:00 (00:00:00:00:00:00), Dst: 00:00:00_00:00:00 (00:00:00:00:00:00)
    Destination: 00:00:00_00:00:00 (00:00:00:00:00:00)
        .... ..0. .... .... .... .... = LG bit: Globally unique address (factory default)
        .... ...0 .... .... .... .... = IG bit: Individual address (unicast)
    Source: 00:00:00_00:00:00 (00:00:00:00:00:00)
        .... ..0. .... .... .... .... = LG bit: Globally unique address (factory default)
        .... ...0 .... .... .... .... = IG bit: Individual address (unicast)
    Type: EtherCAT frame (0x88a4)
    [Stream index: 0]
EtherCAT frame header
    .... .000 0010 1000 = Length: 0x028
    .... 0... .... .... = Reserved: Valid (0x0)
    0010 .... .... .... = Type: ADS (0x2)
AMS
    AMS Target Net Id: 192.168.209.160.1.1
    AMS Target port: 32789
    AMS Sender Net Id: 192.168.209.160.1.1
    AMS Sender port: 1
    CmdId: ADS Read (2)
    StateFlags: 0x0005
        .... .... .... ...1 = RESPONSE: Set
        .... .... .... ..0. = NO RETURN: Not set
        .... .... .... .1.. = ADS COMMAND: Set
        .... .... .... 0... = SYSTEM COMMAND: Not set
        .... .... ...0 .... = HIGH PRIORITY COMMAND: Not set
        .... .... ..0. .... = TIMESTAMP ADDED: Not set
        .... .... .0.. .... = UDP COMMAND: Not set
        .... .... 0... .... = INIT COMMAND: Not set
        0... .... .... .... = BROADCAST: Not set
    cbData: 8
    ErrorCode: NO ERROR (0x00000000)
    InvokeId: 0x00008eac
    ADS Read Response

0000  00 00 00 00 00 00 00 00 00 00 00 00 88 a4 28 20   ..............( 
0010  c0 a8 d1 a0 01 01 15 80 c0 a8 d1 a0 01 01 01 00   ................
0020  02 00 05 00 08 00 00 00 00 00 00 00 ac 8e 00 00   ................
0030  00 00 00 00 00 00 00 00                           ........

No.     Time           Source                Destination           Protocol Length Info
     15 10.076839      00:00:00_00:00:00     00:00:00_00:00:00     AMS      92     ADS Device Notification Request

Frame 15: 92 bytes on wire (736 bits), 92 bytes captured (736 bits)
    Encapsulation type: Ethernet (1)
    Arrival Time: May 10, 2180 10:30:39.620966688 Eastern Daylight Time
    UTC Arrival Time: May 10, 2180 14:30:39.620966688 UTC
    Epoch Arrival Time: 6638250639.620966688
    [Time shift for this packet: 0.000000000 seconds]
    [Time delta from previous captured frame: 2.314620000 seconds]
    [Time delta from previous displayed frame: 2.314620000 seconds]
    [Time since reference or first frame: 10.076839000 seconds]
    Frame Number: 15
    Frame Length: 92 bytes (736 bits)
    Capture Length: 92 bytes (736 bits)
    [Frame is marked: False]
    [Frame is ignored: False]
    [Protocols in frame: eth:ethertype:ecatf:ams]
Ethernet II, Src: 00:00:00_00:00:00 (00:00:00:00:00:00), Dst: 00:00:00_00:00:00 (00:00:00:00:00:00)
    Destination: 00:00:00_00:00:00 (00:00:00:00:00:00)
        .... ..0. .... .... .... .... = LG bit: Globally unique address (factory default)
        .... ...0 .... .... .... .... = IG bit: Individual address (unicast)
    Source: 00:00:00_00:00:00 (00:00:00:00:00:00)
        .... ..0. .... .... .... .... = LG bit: Globally unique address (factory default)
        .... ...0 .... .... .... .... = IG bit: Individual address (unicast)
    Type: EtherCAT frame (0x88a4)
    [Stream index: 0]
EtherCAT frame header
    .... .000 0100 1100 = Length: 0x04c
    .... 0... .... .... = Reserved: Valid (0x0)
    0010 .... .... .... = Type: ADS (0x2)
AMS
    AMS Target Net Id: 192.168.209.160.1.1
    AMS Target port: 33039
    AMS Sender Net Id: 39.120.71.102.1.1
    AMS Sender port: 132
    CmdId: ADS Device Notification (8)
    StateFlags: 0x0004
        .... .... .... ...0 = RESPONSE: Not set
        .... .... .... ..0. = NO RETURN: Not set
        .... .... .... .1.. = ADS COMMAND: Set
        .... .... .... 0... = SYSTEM COMMAND: Not set
        .... .... ...0 .... = HIGH PRIORITY COMMAND: Not set
        .... .... ..0. .... = TIMESTAMP ADDED: Not set
        .... .... .0.. .... = UDP COMMAND: Not set
        .... .... 0... .... = INIT COMMAND: Not set
        0... .... .... .... = BROADCAST: Not set
    cbData: 44
    ErrorCode: NO ERROR (0x00000000)
    InvokeId: 0x00000000
    ADS Device Notification Request
        CbLength: 40
        Count of Stamps: 1

0000  00 00 00 00 00 00 00 00 00 00 00 00 88 a4 4c 20   ..............L 
0010  c0 a8 d1 a0 01 01 0f 81 27 78 47 66 01 01 84 00   ........'xGf....
0020  08 00 04 00 2c 00 00 00 00 00 00 00 00 00 00 00   ....,...........
0030  28 00 00 00 01 00 00 00 d0 09 43 9c 7d 18 dc 01   (.........C.}...
0040  01 00 00 00 0f 00 00 00 10 00 00 00 01 00 00 00   ................
0050  0a 00 00 00 00 00 00 00 00 00 00 00               ............

No.     Time           Source                Destination           Protocol Length Info
     16 10.096957      00:00:00_00:00:00     00:00:00_00:00:00     AMS      48     ADS Read State Request

Frame 16: 48 bytes on wire (384 bits), 48 bytes captured (384 bits)
    Encapsulation type: Ethernet (1)
    Arrival Time: May 10, 2180 10:30:39.641084688 Eastern Daylight Time
    UTC Arrival Time: May 10, 2180 14:30:39.641084688 UTC
    Epoch Arrival Time: 6638250639.641084688
    [Time shift for this packet: 0.000000000 seconds]
    [Time delta from previous captured frame: 0.020118000 seconds]
    [Time delta from previous displayed frame: 0.020118000 seconds]
    [Time since reference or first frame: 10.096957000 seconds]
    Frame Number: 16
    Frame Length: 48 bytes (384 bits)
    Capture Length: 48 bytes (384 bits)
    [Frame is marked: False]
    [Frame is ignored: False]
    [Protocols in frame: eth:ethertype:ecatf:ams]
Ethernet II, Src: 00:00:00_00:00:00 (00:00:00:00:00:00), Dst: 00:00:00_00:00:00 (00:00:00:00:00:00)
    Destination: 00:00:00_00:00:00 (00:00:00:00:00:00)
        .... ..0. .... .... .... .... = LG bit: Globally unique address (factory default)
        .... ...0 .... .... .... .... = IG bit: Individual address (unicast)
    Source: 00:00:00_00:00:00 (00:00:00:00:00:00)
        .... ..0. .... .... .... .... = LG bit: Globally unique address (factory default)
        .... ...0 .... .... .... .... = IG bit: Individual address (unicast)
    Type: EtherCAT frame (0x88a4)
    [Stream index: 0]
EtherCAT frame header
    .... .000 0010 0000 = Length: 0x020
    .... 0... .... .... = Reserved: Valid (0x0)
    0010 .... .... .... = Type: ADS (0x2)
AMS
    AMS Target Net Id: 39.120.71.102.1.1
    AMS Target port: 10000
    AMS Sender Net Id: 192.168.209.160.1.1
    AMS Sender port: 33031
    CmdId: ADS Read State (4)
    StateFlags: 0x0004
        .... .... .... ...0 = RESPONSE: Not set
        .... .... .... ..0. = NO RETURN: Not set
        .... .... .... .1.. = ADS COMMAND: Set
        .... .... .... 0... = SYSTEM COMMAND: Not set
        .... .... ...0 .... = HIGH PRIORITY COMMAND: Not set
        .... .... ..0. .... = TIMESTAMP ADDED: Not set
        .... .... .0.. .... = UDP COMMAND: Not set
        .... .... 0... .... = INIT COMMAND: Not set
        0... .... .... .... = BROADCAST: Not set
    cbData: 0
    ErrorCode: NO ERROR (0x00000000)
    InvokeId: 0x0000032c

0000  00 00 00 00 00 00 00 00 00 00 00 00 88 a4 20 20   ..............  
0010  27 78 47 66 01 01 10 27 c0 a8 d1 a0 01 01 07 81   'xGf...'........
0020  04 00 04 00 00 00 00 00 00 00 00 00 2c 03 00 00   ............,...

No.     Time           Source                Destination           Protocol Length Info
     17 10.096957      00:00:00_00:00:00     00:00:00_00:00:00     AMS      48     ADS Read State Request

Frame 17: 48 bytes on wire (384 bits), 48 bytes captured (384 bits)
    Encapsulation type: Ethernet (1)
    Arrival Time: May 10, 2180 10:30:39.641084688 Eastern Daylight Time
    UTC Arrival Time: May 10, 2180 14:30:39.641084688 UTC
    Epoch Arrival Time: 6638250639.641084688
    [Time shift for this packet: 0.000000000 seconds]
    [Time delta from previous captured frame: 0.000000000 seconds]
    [Time delta from previous displayed frame: 0.000000000 seconds]
    [Time since reference or first frame: 10.096957000 seconds]
    Frame Number: 17
    Frame Length: 48 bytes (384 bits)
    Capture Length: 48 bytes (384 bits)
    [Frame is marked: False]
    [Frame is ignored: False]
    [Protocols in frame: eth:ethertype:ecatf:ams]
Ethernet II, Src: 00:00:00_00:00:00 (00:00:00:00:00:00), Dst: 00:00:00_00:00:00 (00:00:00:00:00:00)
    Destination: 00:00:00_00:00:00 (00:00:00:00:00:00)
        .... ..0. .... .... .... .... = LG bit: Globally unique address (factory default)
        .... ...0 .... .... .... .... = IG bit: Individual address (unicast)
    Source: 00:00:00_00:00:00 (00:00:00:00:00:00)
        .... ..0. .... .... .... .... = LG bit: Globally unique address (factory default)
        .... ...0 .... .... .... .... = IG bit: Individual address (unicast)
    Type: EtherCAT frame (0x88a4)
    [Stream index: 0]
EtherCAT frame header
    .... .000 0010 0000 = Length: 0x020
    .... 1... .... .... = Reserved: Invalid (must be zero for conformance with the protocol specification) (0x1)
    0010 .... .... .... = Type: ADS (0x2)
AMS
    AMS Target Net Id: 192.168.209.160.1.1
    AMS Target port: 10000
    AMS Sender Net Id: 192.168.209.160.1.1
    AMS Sender port: 32941
    CmdId: ADS Read State (4)
    StateFlags: 0x0004
        .... .... .... ...0 = RESPONSE: Not set
        .... .... .... ..0. = NO RETURN: Not set
        .... .... .... .1.. = ADS COMMAND: Set
        .... .... .... 0... = SYSTEM COMMAND: Not set
        .... .... ...0 .... = HIGH PRIORITY COMMAND: Not set
        .... .... ..0. .... = TIMESTAMP ADDED: Not set
        .... .... .0.. .... = UDP COMMAND: Not set
        .... .... 0... .... = INIT COMMAND: Not set
        0... .... .... .... = BROADCAST: Not set
    cbData: 0
    ErrorCode: NO ERROR (0x00000000)
    InvokeId: 0x000006a2

0000  00 00 00 00 00 00 00 00 00 00 00 00 88 a4 20 28   .............. (
0010  c0 a8 d1 a0 01 01 10 27 c0 a8 d1 a0 01 01 ad 80   .......'........
0020  04 00 04 00 00 00 00 00 00 00 00 00 a2 06 00 00   ................

No.     Time           Source                Destination           Protocol Length Info
     18 10.106836      00:00:00_00:00:00     00:00:00_00:00:00     AMS      56     ADS Read State Response

Frame 18: 56 bytes on wire (448 bits), 56 bytes captured (448 bits)
    Encapsulation type: Ethernet (1)
    Arrival Time: May 10, 2180 10:30:39.650963688 Eastern Daylight Time
    UTC Arrival Time: May 10, 2180 14:30:39.650963688 UTC
    Epoch Arrival Time: 6638250639.650963688
    [Time shift for this packet: 0.000000000 seconds]
    [Time delta from previous captured frame: 0.009879000 seconds]
    [Time delta from previous displayed frame: 0.009879000 seconds]
    [Time since reference or first frame: 10.106836000 seconds]
    Frame Number: 18
    Frame Length: 56 bytes (448 bits)
    Capture Length: 56 bytes (448 bits)
    [Frame is marked: False]
    [Frame is ignored: False]
    [Protocols in frame: eth:ethertype:ecatf:ams]
Ethernet II, Src: 00:00:00_00:00:00 (00:00:00:00:00:00), Dst: 00:00:00_00:00:00 (00:00:00:00:00:00)
    Destination: 00:00:00_00:00:00 (00:00:00:00:00:00)
        .... ..0. .... .... .... .... = LG bit: Globally unique address (factory default)
        .... ...0 .... .... .... .... = IG bit: Individual address (unicast)
    Source: 00:00:00_00:00:00 (00:00:00:00:00:00)
        .... ..0. .... .... .... .... = LG bit: Globally unique address (factory default)
        .... ...0 .... .... .... .... = IG bit: Individual address (unicast)
    Type: EtherCAT frame (0x88a4)
    [Stream index: 0]
EtherCAT frame header
    .... .000 0010 1000 = Length: 0x028
    .... 0... .... .... = Reserved: Valid (0x0)
    0010 .... .... .... = Type: ADS (0x2)
AMS
    AMS Target Net Id: 192.168.209.160.1.1
    AMS Target port: 32941
    AMS Sender Net Id: 192.168.209.160.1.1
    AMS Sender port: 10000
    CmdId: ADS Read State (4)
    StateFlags: 0x0005
        .... .... .... ...1 = RESPONSE: Set
        .... .... .... ..0. = NO RETURN: Not set
        .... .... .... .1.. = ADS COMMAND: Set
        .... .... .... 0... = SYSTEM COMMAND: Not set
        .... .... ...0 .... = HIGH PRIORITY COMMAND: Not set
        .... .... ..0. .... = TIMESTAMP ADDED: Not set
        .... .... .0.. .... = UDP COMMAND: Not set
        .... .... 0... .... = INIT COMMAND: Not set
        0... .... .... .... = BROADCAST: Not set
    cbData: 8
    ErrorCode: NO ERROR (0x00000000)
    InvokeId: 0x000006a2
    ADS Read State Response
        Result: NO ERROR (0x00000000)
        AdsState: 0x000f
        DeviceState: 0x0001

0000  00 00 00 00 00 00 00 00 00 00 00 00 88 a4 28 20   ..............( 
0010  c0 a8 d1 a0 01 01 ad 80 c0 a8 d1 a0 01 01 10 27   ...............'
0020  04 00 05 00 08 00 00 00 00 00 00 00 a2 06 00 00   ................
0030  00 00 00 00 0f 00 01 00                           ........

No.     Time           Source                Destination           Protocol Length Info
     19 10.282181      00:00:00_00:00:00     00:00:00_00:00:00     AMS      56     ADS Read State Response

Frame 19: 56 bytes on wire (448 bits), 56 bytes captured (448 bits)
    Encapsulation type: Ethernet (1)
    Arrival Time: May 10, 2180 10:30:39.826308688 Eastern Daylight Time
    UTC Arrival Time: May 10, 2180 14:30:39.826308688 UTC
    Epoch Arrival Time: 6638250639.826308688
    [Time shift for this packet: 0.000000000 seconds]
    [Time delta from previous captured frame: 0.175345000 seconds]
    [Time delta from previous displayed frame: 0.175345000 seconds]
    [Time since reference or first frame: 10.282181000 seconds]
    Frame Number: 19
    Frame Length: 56 bytes (448 bits)
    Capture Length: 56 bytes (448 bits)
    [Frame is marked: False]
    [Frame is ignored: False]
    [Protocols in frame: eth:ethertype:ecatf:ams]
Ethernet II, Src: 00:00:00_00:00:00 (00:00:00:00:00:00), Dst: 00:00:00_00:00:00 (00:00:00:00:00:00)
    Destination: 00:00:00_00:00:00 (00:00:00:00:00:00)
        .... ..0. .... .... .... .... = LG bit: Globally unique address (factory default)
        .... ...0 .... .... .... .... = IG bit: Individual address (unicast)
    Source: 00:00:00_00:00:00 (00:00:00:00:00:00)
        .... ..0. .... .... .... .... = LG bit: Globally unique address (factory default)
        .... ...0 .... .... .... .... = IG bit: Individual address (unicast)
    Type: EtherCAT frame (0x88a4)
    [Stream index: 0]
EtherCAT frame header
    .... .000 0010 1000 = Length: 0x028
    .... 0... .... .... = Reserved: Valid (0x0)
    0010 .... .... .... = Type: ADS (0x2)
AMS
    AMS Target Net Id: 192.168.209.160.1.1
    AMS Target port: 33031
    AMS Sender Net Id: 39.120.71.102.1.1
    AMS Sender port: 10000
    CmdId: ADS Read State (4)
    StateFlags: 0x0005
        .... .... .... ...1 = RESPONSE: Set
        .... .... .... ..0. = NO RETURN: Not set
        .... .... .... .1.. = ADS COMMAND: Set
        .... .... .... 0... = SYSTEM COMMAND: Not set
        .... .... ...0 .... = HIGH PRIORITY COMMAND: Not set
        .... .... ..0. .... = TIMESTAMP ADDED: Not set
        .... .... .0.. .... = UDP COMMAND: Not set
        .... .... 0... .... = INIT COMMAND: Not set
        0... .... .... .... = BROADCAST: Not set
    cbData: 8
    ErrorCode: NO ERROR (0x00000000)
    InvokeId: 0x0000032c
    ADS Read State Response
        Result: NO ERROR (0x00000000)
        AdsState: 0x0005
        DeviceState: 0x0001

0000  00 00 00 00 00 00 00 00 00 00 00 00 88 a4 28 20   ..............( 
0010  c0 a8 d1 a0 01 01 07 81 27 78 47 66 01 01 10 27   ........'xGf...'
0020  04 00 05 00 08 00 00 00 00 00 00 00 2c 03 00 00   ............,...
0030  00 00 00 00 05 00 01 00                           ........

No.     Time           Source                Destination           Protocol Length Info
     20 15.067891      00:00:00_00:00:00     00:00:00_00:00:00     AMS      60     ADS Read Request

Frame 20: 60 bytes on wire (480 bits), 60 bytes captured (480 bits)
    Encapsulation type: Ethernet (1)
    Arrival Time: May 10, 2180 10:30:44.612018688 Eastern Daylight Time
    UTC Arrival Time: May 10, 2180 14:30:44.612018688 UTC
    Epoch Arrival Time: 6638250644.612018688
    [Time shift for this packet: 0.000000000 seconds]
    [Time delta from previous captured frame: 4.785710000 seconds]
    [Time delta from previous displayed frame: 4.785710000 seconds]
    [Time since reference or first frame: 15.067891000 seconds]
    Frame Number: 20
    Frame Length: 60 bytes (480 bits)
    Capture Length: 60 bytes (480 bits)
    [Frame is marked: False]
    [Frame is ignored: False]
    [Protocols in frame: eth:ethertype:ecatf:ams]
Ethernet II, Src: 00:00:00_00:00:00 (00:00:00:00:00:00), Dst: 00:00:00_00:00:00 (00:00:00:00:00:00)
    Destination: 00:00:00_00:00:00 (00:00:00:00:00:00)
        .... ..0. .... .... .... .... = LG bit: Globally unique address (factory default)
        .... ...0 .... .... .... .... = IG bit: Individual address (unicast)
    Source: 00:00:00_00:00:00 (00:00:00:00:00:00)
        .... ..0. .... .... .... .... = LG bit: Globally unique address (factory default)
        .... ...0 .... .... .... .... = IG bit: Individual address (unicast)
    Type: EtherCAT frame (0x88a4)
    [Stream index: 0]
EtherCAT frame header
    .... .000 0010 1100 = Length: 0x02c
    .... 0... .... .... = Reserved: Valid (0x0)
    0010 .... .... .... = Type: ADS (0x2)
AMS
    AMS Target Net Id: 192.168.209.160.1.1
    AMS Target port: 1
    AMS Sender Net Id: 192.168.209.160.1.1
    AMS Sender port: 33116
    CmdId: ADS Read (2)
    StateFlags: 0x0004
        .... .... .... ...0 = RESPONSE: Not set
        .... .... .... ..0. = NO RETURN: Not set
        .... .... .... .1.. = ADS COMMAND: Set
        .... .... .... 0... = SYSTEM COMMAND: Not set
        .... .... ...0 .... = HIGH PRIORITY COMMAND: Not set
        .... .... ..0. .... = TIMESTAMP ADDED: Not set
        .... .... .0.. .... = UDP COMMAND: Not set
        .... .... 0... .... = INIT COMMAND: Not set
        0... .... .... .... = BROADCAST: Not set
    cbData: 12
    ErrorCode: NO ERROR (0x00000000)
    InvokeId: 0x00000001
    ADS Read Request
        IndexGroup: 0x00000003
        IndexOffset: 0x00000002
        CbLength: 4

0000  00 00 00 00 00 00 00 00 00 00 00 00 88 a4 2c 20   .............., 
0010  c0 a8 d1 a0 01 01 01 00 c0 a8 d1 a0 01 01 5c 81   ..............\.
0020  02 00 04 00 0c 00 00 00 00 00 00 00 01 00 00 00   ................
0030  03 00 00 00 02 00 00 00 04 00 00 00               ............

No.     Time           Source                Destination           Protocol Length Info
     21 15.067891      00:00:00_00:00:00     00:00:00_00:00:00     AMS      60     ADS Read Response

Frame 21: 60 bytes on wire (480 bits), 60 bytes captured (480 bits)
    Encapsulation type: Ethernet (1)
    Arrival Time: May 10, 2180 10:30:44.612018688 Eastern Daylight Time
    UTC Arrival Time: May 10, 2180 14:30:44.612018688 UTC
    Epoch Arrival Time: 6638250644.612018688
    [Time shift for this packet: 0.000000000 seconds]
    [Time delta from previous captured frame: 0.000000000 seconds]
    [Time delta from previous displayed frame: 0.000000000 seconds]
    [Time since reference or first frame: 15.067891000 seconds]
    Frame Number: 21
    Frame Length: 60 bytes (480 bits)
    Capture Length: 60 bytes (480 bits)
    [Frame is marked: False]
    [Frame is ignored: False]
    [Protocols in frame: eth:ethertype:ecatf:ams]
Ethernet II, Src: 00:00:00_00:00:00 (00:00:00:00:00:00), Dst: 00:00:00_00:00:00 (00:00:00:00:00:00)
    Destination: 00:00:00_00:00:00 (00:00:00:00:00:00)
        .... ..0. .... .... .... .... = LG bit: Globally unique address (factory default)
        .... ...0 .... .... .... .... = IG bit: Individual address (unicast)
    Source: 00:00:00_00:00:00 (00:00:00:00:00:00)
        .... ..0. .... .... .... .... = LG bit: Globally unique address (factory default)
        .... ...0 .... .... .... .... = IG bit: Individual address (unicast)
    Type: EtherCAT frame (0x88a4)
    [Stream index: 0]
EtherCAT frame header
    .... .000 0010 1100 = Length: 0x02c
    .... 0... .... .... = Reserved: Valid (0x0)
    0010 .... .... .... = Type: ADS (0x2)
AMS
    AMS Target Net Id: 192.168.209.160.1.1
    AMS Target port: 33116
    AMS Sender Net Id: 192.168.209.160.1.1
    AMS Sender port: 1
    CmdId: ADS Read (2)
    StateFlags: 0x0005
        .... .... .... ...1 = RESPONSE: Set
        .... .... .... ..0. = NO RETURN: Not set
        .... .... .... .1.. = ADS COMMAND: Set
        .... .... .... 0... = SYSTEM COMMAND: Not set
        .... .... ...0 .... = HIGH PRIORITY COMMAND: Not set
        .... .... ..0. .... = TIMESTAMP ADDED: Not set
        .... .... .0.. .... = UDP COMMAND: Not set
        .... .... 0... .... = INIT COMMAND: Not set
        0... .... .... .... = BROADCAST: Not set
    cbData: 12
    ErrorCode: NO ERROR (0x00000000)
    InvokeId: 0x00000001
    ADS Read Response
        Result: NO ERROR (0x00000000)
        CbLength: 4
        Data

0000  00 00 00 00 00 00 00 00 00 00 00 00 88 a4 2c 20   .............., 
0010  c0 a8 d1 a0 01 01 5c 81 c0 a8 d1 a0 01 01 01 00   ......\.........
0020  02 00 05 00 0c 00 00 00 00 00 00 00 01 00 00 00   ................
0030  00 00 00 00 04 00 00 00 01 00 00 00               ............

No.     Time           Source                Destination           Protocol Length Info
     22 15.077833      00:00:00_00:00:00     00:00:00_00:00:00     AMS      60     ADS Read Request

Frame 22: 60 bytes on wire (480 bits), 60 bytes captured (480 bits)
    Encapsulation type: Ethernet (1)
    Arrival Time: May 10, 2180 10:30:44.621960688 Eastern Daylight Time
    UTC Arrival Time: May 10, 2180 14:30:44.621960688 UTC
    Epoch Arrival Time: 6638250644.621960688
    [Time shift for this packet: 0.000000000 seconds]
    [Time delta from previous captured frame: 0.009942000 seconds]
    [Time delta from previous displayed frame: 0.009942000 seconds]
    [Time since reference or first frame: 15.077833000 seconds]
    Frame Number: 22
    Frame Length: 60 bytes (480 bits)
    Capture Length: 60 bytes (480 bits)
    [Frame is marked: False]
    [Frame is ignored: False]
    [Protocols in frame: eth:ethertype:ecatf:ams]
Ethernet II, Src: 00:00:00_00:00:00 (00:00:00:00:00:00), Dst: 00:00:00_00:00:00 (00:00:00:00:00:00)
    Destination: 00:00:00_00:00:00 (00:00:00:00:00:00)
        .... ..0. .... .... .... .... = LG bit: Globally unique address (factory default)
        .... ...0 .... .... .... .... = IG bit: Individual address (unicast)
    Source: 00:00:00_00:00:00 (00:00:00:00:00:00)
        .... ..0. .... .... .... .... = LG bit: Globally unique address (factory default)
        .... ...0 .... .... .... .... = IG bit: Individual address (unicast)
    Type: EtherCAT frame (0x88a4)
    [Stream index: 0]
EtherCAT frame header
    .... .000 0010 1100 = Length: 0x02c
    .... 0... .... .... = Reserved: Valid (0x0)
    0010 .... .... .... = Type: ADS (0x2)
AMS
    AMS Target Net Id: 192.168.209.160.1.1
    AMS Target port: 1
    AMS Sender Net Id: 192.168.209.160.1.1
    AMS Sender port: 33116
    CmdId: ADS Read (2)
    StateFlags: 0x0004
        .... .... .... ...0 = RESPONSE: Not set
        .... .... .... ..0. = NO RETURN: Not set
        .... .... .... .1.. = ADS COMMAND: Set
        .... .... .... 0... = SYSTEM COMMAND: Not set
        .... .... ...0 .... = HIGH PRIORITY COMMAND: Not set
        .... .... ..0. .... = TIMESTAMP ADDED: Not set
        .... .... .0.. .... = UDP COMMAND: Not set
        .... .... 0... .... = INIT COMMAND: Not set
        0... .... .... .... = BROADCAST: Not set
    cbData: 12
    ErrorCode: NO ERROR (0x00000000)
    InvokeId: 0x00000002
    ADS Read Request
        IndexGroup: 0x00000003
        IndexOffset: 0x00000001
        CbLength: 58

0000  00 00 00 00 00 00 00 00 00 00 00 00 88 a4 2c 20   .............., 
0010  c0 a8 d1 a0 01 01 01 00 c0 a8 d1 a0 01 01 5c 81   ..............\.
0020  02 00 04 00 0c 00 00 00 00 00 00 00 02 00 00 00   ................
0030  03 00 00 00 01 00 00 00 3a 00 00 00               ........:...

No.     Time           Source                Destination           Protocol Length Info
     23 15.077833      00:00:00_00:00:00     00:00:00_00:00:00     AMS      114    ADS Read Response

Frame 23: 114 bytes on wire (912 bits), 114 bytes captured (912 bits)
    Encapsulation type: Ethernet (1)
    Arrival Time: May 10, 2180 10:30:44.621960688 Eastern Daylight Time
    UTC Arrival Time: May 10, 2180 14:30:44.621960688 UTC
    Epoch Arrival Time: 6638250644.621960688
    [Time shift for this packet: 0.000000000 seconds]
    [Time delta from previous captured frame: 0.000000000 seconds]
    [Time delta from previous displayed frame: 0.000000000 seconds]
    [Time since reference or first frame: 15.077833000 seconds]
    Frame Number: 23
    Frame Length: 114 bytes (912 bits)
    Capture Length: 114 bytes (912 bits)
    [Frame is marked: False]
    [Frame is ignored: False]
    [Protocols in frame: eth:ethertype:ecatf:ams]
Ethernet II, Src: 00:00:00_00:00:00 (00:00:00:00:00:00), Dst: 00:00:00_00:00:00 (00:00:00:00:00:00)
    Destination: 00:00:00_00:00:00 (00:00:00:00:00:00)
        .... ..0. .... .... .... .... = LG bit: Globally unique address (factory default)
        .... ...0 .... .... .... .... = IG bit: Individual address (unicast)
    Source: 00:00:00_00:00:00 (00:00:00:00:00:00)
        .... ..0. .... .... .... .... = LG bit: Globally unique address (factory default)
        .... ...0 .... .... .... .... = IG bit: Individual address (unicast)
    Type: EtherCAT frame (0x88a4)
    [Stream index: 0]
EtherCAT frame header
    .... .000 0110 0010 = Length: 0x062
    .... 0... .... .... = Reserved: Valid (0x0)
    0010 .... .... .... = Type: ADS (0x2)
AMS
    AMS Target Net Id: 192.168.209.160.1.1
    AMS Target port: 33116
    AMS Sender Net Id: 192.168.209.160.1.1
    AMS Sender port: 1
    CmdId: ADS Read (2)
    StateFlags: 0x0005
        .... .... .... ...1 = RESPONSE: Set
        .... .... .... ..0. = NO RETURN: Not set
        .... .... .... .1.. = ADS COMMAND: Set
        .... .... .... 0... = SYSTEM COMMAND: Not set
        .... .... ...0 .... = HIGH PRIORITY COMMAND: Not set
        .... .... ..0. .... = TIMESTAMP ADDED: Not set
        .... .... .0.. .... = UDP COMMAND: Not set
        .... .... 0... .... = INIT COMMAND: Not set
        0... .... .... .... = BROADCAST: Not set
    cbData: 66
    ErrorCode: NO ERROR (0x00000000)
    InvokeId: 0x00000002
    ADS Read Response
        Result: NO ERROR (0x00000000)
        CbLength: 58
        Data

0000  00 00 00 00 00 00 00 00 00 00 00 00 88 a4 62 20   ..............b 
0010  c0 a8 d1 a0 01 01 5c 81 c0 a8 d1 a0 01 01 01 00   ......\.........
0020  02 00 05 00 42 00 00 00 00 00 00 00 02 00 00 00   ....B...........
0030  00 00 00 00 3a 00 00 00 00 00 00 00 05 81 50 00   ....:.........P.
0040  05 00 00 00 02 00 00 00 50 43 2d 37 38 34 37 36   ........PC-78476
0050  36 00 00 00 00 00 00 00 00 00 00 00 00 00 00 00   6...............
0060  00 00 00 00 00 00 00 00 00 00 00 00 27 78 47 66   ............'xGf
0070  01 01                                             ..

No.     Time           Source                Destination           Protocol Length Info
     24 15.087885      00:00:00_00:00:00     00:00:00_00:00:00     AMS      60     ADS Read Request

Frame 24: 60 bytes on wire (480 bits), 60 bytes captured (480 bits)
    Encapsulation type: Ethernet (1)
    Arrival Time: May 10, 2180 10:30:44.632012688 Eastern Daylight Time
    UTC Arrival Time: May 10, 2180 14:30:44.632012688 UTC
    Epoch Arrival Time: 6638250644.632012688
    [Time shift for this packet: 0.000000000 seconds]
    [Time delta from previous captured frame: 0.010052000 seconds]
    [Time delta from previous displayed frame: 0.010052000 seconds]
    [Time since reference or first frame: 15.087885000 seconds]
    Frame Number: 24
    Frame Length: 60 bytes (480 bits)
    Capture Length: 60 bytes (480 bits)
    [Frame is marked: False]
    [Frame is ignored: False]
    [Protocols in frame: eth:ethertype:ecatf:ams]
Ethernet II, Src: 00:00:00_00:00:00 (00:00:00:00:00:00), Dst: 00:00:00_00:00:00 (00:00:00:00:00:00)
    Destination: 00:00:00_00:00:00 (00:00:00:00:00:00)
        .... ..0. .... .... .... .... = LG bit: Globally unique address (factory default)
        .... ...0 .... .... .... .... = IG bit: Individual address (unicast)
    Source: 00:00:00_00:00:00 (00:00:00:00:00:00)
        .... ..0. .... .... .... .... = LG bit: Globally unique address (factory default)
        .... ...0 .... .... .... .... = IG bit: Individual address (unicast)
    Type: EtherCAT frame (0x88a4)
    [Stream index: 0]
EtherCAT frame header
    .... .000 0010 1100 = Length: 0x02c
    .... 0... .... .... = Reserved: Valid (0x0)
    0010 .... .... .... = Type: ADS (0x2)
AMS
    AMS Target Net Id: 192.168.209.160.1.1
    AMS Target port: 10000
    AMS Sender Net Id: 192.168.209.160.1.1
    AMS Sender port: 32941
    CmdId: ADS Read (2)
    StateFlags: 0x0004
        .... .... .... ...0 = RESPONSE: Not set
        .... .... .... ..0. = NO RETURN: Not set
        .... .... .... .1.. = ADS COMMAND: Set
        .... .... .... 0... = SYSTEM COMMAND: Not set
        .... .... ...0 .... = HIGH PRIORITY COMMAND: Not set
        .... .... ..0. .... = TIMESTAMP ADDED: Not set
        .... .... .0.. .... = UDP COMMAND: Not set
        .... .... 0... .... = INIT COMMAND: Not set
        0... .... .... .... = BROADCAST: Not set
    cbData: 12
    ErrorCode: NO ERROR (0x00000000)
    InvokeId: 0x000006a3
    ADS Read Request
        IndexGroup: 0x00000323
        IndexOffset: 0x00000000
        CbLength: 2048

0000  00 00 00 00 00 00 00 00 00 00 00 00 88 a4 2c 20   .............., 
0010  c0 a8 d1 a0 01 01 10 27 c0 a8 d1 a0 01 01 ad 80   .......'........
0020  02 00 04 00 0c 00 00 00 00 00 00 00 a3 06 00 00   ................
0030  23 03 00 00 00 00 00 00 00 08 00 00               #...........

No.     Time           Source                Destination           Protocol Length Info
     25 15.097834      00:00:00_00:00:00     00:00:00_00:00:00     AMS      124    ADS Read Response

Frame 25: 124 bytes on wire (992 bits), 124 bytes captured (992 bits)
    Encapsulation type: Ethernet (1)
    Arrival Time: May 10, 2180 10:30:44.641961688 Eastern Daylight Time
    UTC Arrival Time: May 10, 2180 14:30:44.641961688 UTC
    Epoch Arrival Time: 6638250644.641961688
    [Time shift for this packet: 0.000000000 seconds]
    [Time delta from previous captured frame: 0.009949000 seconds]
    [Time delta from previous displayed frame: 0.009949000 seconds]
    [Time since reference or first frame: 15.097834000 seconds]
    Frame Number: 25
    Frame Length: 124 bytes (992 bits)
    Capture Length: 124 bytes (992 bits)
    [Frame is marked: False]
    [Frame is ignored: False]
    [Protocols in frame: eth:ethertype:ecatf:ams]
Ethernet II, Src: 00:00:00_00:00:00 (00:00:00:00:00:00), Dst: 00:00:00_00:00:00 (00:00:00:00:00:00)
    Destination: 00:00:00_00:00:00 (00:00:00:00:00:00)
        .... ..0. .... .... .... .... = LG bit: Globally unique address (factory default)
        .... ...0 .... .... .... .... = IG bit: Individual address (unicast)
    Source: 00:00:00_00:00:00 (00:00:00:00:00:00)
        .... ..0. .... .... .... .... = LG bit: Globally unique address (factory default)
        .... ...0 .... .... .... .... = IG bit: Individual address (unicast)
    Type: EtherCAT frame (0x88a4)
    [Stream index: 0]
EtherCAT frame header
    .... .000 0110 1100 = Length: 0x06c
    .... 0... .... .... = Reserved: Valid (0x0)
    0010 .... .... .... = Type: ADS (0x2)
AMS
    AMS Target Net Id: 192.168.209.160.1.1
    AMS Target port: 32941
    AMS Sender Net Id: 192.168.209.160.1.1
    AMS Sender port: 10000
    CmdId: ADS Read (2)
    StateFlags: 0x0005
        .... .... .... ...1 = RESPONSE: Set
        .... .... .... ..0. = NO RETURN: Not set
        .... .... .... .1.. = ADS COMMAND: Set
        .... .... .... 0... = SYSTEM COMMAND: Not set
        .... .... ...0 .... = HIGH PRIORITY COMMAND: Not set
        .... .... ..0. .... = TIMESTAMP ADDED: Not set
        .... .... .0.. .... = UDP COMMAND: Not set
        .... .... 0... .... = INIT COMMAND: Not set
        0... .... .... .... = BROADCAST: Not set
    cbData: 76
    ErrorCode: NO ERROR (0x00000000)
    InvokeId: 0x000006a3
    ADS Read Response
        Result: NO ERROR (0x00000000)
        CbLength: 68
        Data

0000  00 00 00 00 00 00 00 00 00 00 00 00 88 a4 6c 20   ..............l 
0010  c0 a8 d1 a0 01 01 ad 80 c0 a8 d1 a0 01 01 10 27   ...............'
0020  02 00 05 00 4c 00 00 00 00 00 00 00 a3 06 00 00   ....L...........
0030  00 00 00 00 44 00 00 00 27 78 47 66 01 01 01 00   ....D...'xGf....
0040  20 00 00 00 60 ea 00 00 00 00 00 00 00 00 00 00    ...`...........
0050  00 00 00 00 00 00 00 00 0e 00 00 00 0a 00 00 00   ................
0060  00 00 00 00 31 39 32 2e 31 36 38 2e 31 2e 31 35   ....192.168.1.15
0070  30 00 50 43 2d 37 38 34 37 36 36 00               0.PC-784766.

No.     Time           Source                Destination           Protocol Length Info
     26 15.107870      00:00:00_00:00:00     00:00:00_00:00:00     AMS      60     ADS Read Request

Frame 26: 60 bytes on wire (480 bits), 60 bytes captured (480 bits)
    Encapsulation type: Ethernet (1)
    Arrival Time: May 10, 2180 10:30:44.651997688 Eastern Daylight Time
    UTC Arrival Time: May 10, 2180 14:30:44.651997688 UTC
    Epoch Arrival Time: 6638250644.651997688
    [Time shift for this packet: 0.000000000 seconds]
    [Time delta from previous captured frame: 0.010036000 seconds]
    [Time delta from previous displayed frame: 0.010036000 seconds]
    [Time since reference or first frame: 15.107870000 seconds]
    Frame Number: 26
    Frame Length: 60 bytes (480 bits)
    Capture Length: 60 bytes (480 bits)
    [Frame is marked: False]
    [Frame is ignored: False]
    [Protocols in frame: eth:ethertype:ecatf:ams]
Ethernet II, Src: 00:00:00_00:00:00 (00:00:00:00:00:00), Dst: 00:00:00_00:00:00 (00:00:00:00:00:00)
    Destination: 00:00:00_00:00:00 (00:00:00:00:00:00)
        .... ..0. .... .... .... .... = LG bit: Globally unique address (factory default)
        .... ...0 .... .... .... .... = IG bit: Individual address (unicast)
    Source: 00:00:00_00:00:00 (00:00:00:00:00:00)
        .... ..0. .... .... .... .... = LG bit: Globally unique address (factory default)
        .... ...0 .... .... .... .... = IG bit: Individual address (unicast)
    Type: EtherCAT frame (0x88a4)
    [Stream index: 0]
EtherCAT frame header
    .... .000 0010 1100 = Length: 0x02c
    .... 0... .... .... = Reserved: Valid (0x0)
    0010 .... .... .... = Type: ADS (0x2)
AMS
    AMS Target Net Id: 192.168.209.160.1.1
    AMS Target port: 10000
    AMS Sender Net Id: 192.168.209.160.1.1
    AMS Sender port: 32941
    CmdId: ADS Read (2)
    StateFlags: 0x0004
        .... .... .... ...0 = RESPONSE: Not set
        .... .... .... ..0. = NO RETURN: Not set
        .... .... .... .1.. = ADS COMMAND: Set
        .... .... .... 0... = SYSTEM COMMAND: Not set
        .... .... ...0 .... = HIGH PRIORITY COMMAND: Not set
        .... .... ..0. .... = TIMESTAMP ADDED: Not set
        .... .... .0.. .... = UDP COMMAND: Not set
        .... .... 0... .... = INIT COMMAND: Not set
        0... .... .... .... = BROADCAST: Not set
    cbData: 12
    ErrorCode: NO ERROR (0x00000000)
    InvokeId: 0x000006a4
    ADS Read Request
        IndexGroup: 0x00000323
        IndexOffset: 0x00000001
        CbLength: 2048

0000  00 00 00 00 00 00 00 00 00 00 00 00 88 a4 2c 20   .............., 
0010  c0 a8 d1 a0 01 01 10 27 c0 a8 d1 a0 01 01 ad 80   .......'........
0020  02 00 04 00 0c 00 00 00 00 00 00 00 a4 06 00 00   ................
0030  23 03 00 00 01 00 00 00 00 08 00 00               #...........

No.     Time           Source                Destination           Protocol Length Info
     27 15.117947      00:00:00_00:00:00     00:00:00_00:00:00     AMS      56     ADS Read Response

Frame 27: 56 bytes on wire (448 bits), 56 bytes captured (448 bits)
    Encapsulation type: Ethernet (1)
    Arrival Time: May 10, 2180 10:30:44.662074688 Eastern Daylight Time
    UTC Arrival Time: May 10, 2180 14:30:44.662074688 UTC
    Epoch Arrival Time: 6638250644.662074688
    [Time shift for this packet: 0.000000000 seconds]
    [Time delta from previous captured frame: 0.010077000 seconds]
    [Time delta from previous displayed frame: 0.010077000 seconds]
    [Time since reference or first frame: 15.117947000 seconds]
    Frame Number: 27
    Frame Length: 56 bytes (448 bits)
    Capture Length: 56 bytes (448 bits)
    [Frame is marked: False]
    [Frame is ignored: False]
    [Protocols in frame: eth:ethertype:ecatf:ams]
Ethernet II, Src: 00:00:00_00:00:00 (00:00:00:00:00:00), Dst: 00:00:00_00:00:00 (00:00:00:00:00:00)
    Destination: 00:00:00_00:00:00 (00:00:00:00:00:00)
        .... ..0. .... .... .... .... = LG bit: Globally unique address (factory default)
        .... ...0 .... .... .... .... = IG bit: Individual address (unicast)
    Source: 00:00:00_00:00:00 (00:00:00:00:00:00)
        .... ..0. .... .... .... .... = LG bit: Globally unique address (factory default)
        .... ...0 .... .... .... .... = IG bit: Individual address (unicast)
    Type: EtherCAT frame (0x88a4)
    [Stream index: 0]
EtherCAT frame header
    .... .000 0010 1000 = Length: 0x028
    .... 0... .... .... = Reserved: Valid (0x0)
    0010 .... .... .... = Type: ADS (0x2)
AMS
    AMS Target Net Id: 192.168.209.160.1.1
    AMS Target port: 32941
    AMS Sender Net Id: 192.168.209.160.1.1
    AMS Sender port: 10000
    CmdId: ADS Read (2)
    StateFlags: 0x0005
        .... .... .... ...1 = RESPONSE: Set
        .... .... .... ..0. = NO RETURN: Not set
        .... .... .... .1.. = ADS COMMAND: Set
        .... .... .... 0... = SYSTEM COMMAND: Not set
        .... .... ...0 .... = HIGH PRIORITY COMMAND: Not set
        .... .... ..0. .... = TIMESTAMP ADDED: Not set
        .... .... .0.. .... = UDP COMMAND: Not set
        .... .... 0... .... = INIT COMMAND: Not set
        0... .... .... .... = BROADCAST: Not set
    cbData: 8
    ErrorCode: NO ERROR (0x00000000)
    InvokeId: 0x000006a4
    ADS Read Response

0000  00 00 00 00 00 00 00 00 00 00 00 00 88 a4 28 20   ..............( 
0010  c0 a8 d1 a0 01 01 ad 80 c0 a8 d1 a0 01 01 10 27   ...............'
0020  02 00 05 00 08 00 00 00 00 00 00 00 a4 06 00 00   ................
0030  16 07 00 00 00 00 00 00                           ........

No.     Time           Source                Destination           Protocol Length Info
     28 15.167849      00:00:00_00:00:00     00:00:00_00:00:00     AMS      92     ADS Device Notification Request

Frame 28: 92 bytes on wire (736 bits), 92 bytes captured (736 bits)
    Encapsulation type: Ethernet (1)
    Arrival Time: May 10, 2180 10:30:44.711976688 Eastern Daylight Time
    UTC Arrival Time: May 10, 2180 14:30:44.711976688 UTC
    Epoch Arrival Time: 6638250644.711976688
    [Time shift for this packet: 0.000000000 seconds]
    [Time delta from previous captured frame: 0.049902000 seconds]
    [Time delta from previous displayed frame: 0.049902000 seconds]
    [Time since reference or first frame: 15.167849000 seconds]
    Frame Number: 28
    Frame Length: 92 bytes (736 bits)
    Capture Length: 92 bytes (736 bits)
    [Frame is marked: False]
    [Frame is ignored: False]
    [Protocols in frame: eth:ethertype:ecatf:ams]
Ethernet II, Src: 00:00:00_00:00:00 (00:00:00:00:00:00), Dst: 00:00:00_00:00:00 (00:00:00:00:00:00)
    Destination: 00:00:00_00:00:00 (00:00:00:00:00:00)
        .... ..0. .... .... .... .... = LG bit: Globally unique address (factory default)
        .... ...0 .... .... .... .... = IG bit: Individual address (unicast)
    Source: 00:00:00_00:00:00 (00:00:00:00:00:00)
        .... ..0. .... .... .... .... = LG bit: Globally unique address (factory default)
        .... ...0 .... .... .... .... = IG bit: Individual address (unicast)
    Type: EtherCAT frame (0x88a4)
    [Stream index: 0]
EtherCAT frame header
    .... .000 0100 1100 = Length: 0x04c
    .... 0... .... .... = Reserved: Valid (0x0)
    0010 .... .... .... = Type: ADS (0x2)
AMS
    AMS Target Net Id: 192.168.209.160.1.1
    AMS Target port: 33039
    AMS Sender Net Id: 39.120.71.102.1.1
    AMS Sender port: 132
    CmdId: ADS Device Notification (8)
    StateFlags: 0x0004
        .... .... .... ...0 = RESPONSE: Not set
        .... .... .... ..0. = NO RETURN: Not set
        .... .... .... .1.. = ADS COMMAND: Set
        .... .... .... 0... = SYSTEM COMMAND: Not set
        .... .... ...0 .... = HIGH PRIORITY COMMAND: Not set
        .... .... ..0. .... = TIMESTAMP ADDED: Not set
        .... .... .0.. .... = UDP COMMAND: Not set
        .... .... 0... .... = INIT COMMAND: Not set
        0... .... .... .... = BROADCAST: Not set
    cbData: 44
    ErrorCode: NO ERROR (0x00000000)
    InvokeId: 0x00000000
    ADS Device Notification Request
        CbLength: 40
        Count of Stamps: 1

0000  00 00 00 00 00 00 00 00 00 00 00 00 88 a4 4c 20   ..............L 
0010  c0 a8 d1 a0 01 01 0f 81 27 78 47 66 01 01 84 00   ........'xGf....
0020  08 00 04 00 2c 00 00 00 00 00 00 00 00 00 00 00   ....,...........
0030  28 00 00 00 01 00 00 00 80 66 90 9c 7d 18 dc 01   (........f..}...
0040  01 00 00 00 0f 00 00 00 10 00 00 00 01 00 00 00   ................
0050  0a 00 00 00 00 00 00 00 00 00 00 00               ............

No.     Time           Source                Destination           Protocol Length Info
     29 15.251019      00:00:00_00:00:00     00:00:00_00:00:00     AMS      48     ADS Read State Request

Frame 29: 48 bytes on wire (384 bits), 48 bytes captured (384 bits)
    Encapsulation type: Ethernet (1)
    Arrival Time: May 10, 2180 10:30:44.795146688 Eastern Daylight Time
    UTC Arrival Time: May 10, 2180 14:30:44.795146688 UTC
    Epoch Arrival Time: 6638250644.795146688
    [Time shift for this packet: 0.000000000 seconds]
    [Time delta from previous captured frame: 0.083170000 seconds]
    [Time delta from previous displayed frame: 0.083170000 seconds]
    [Time since reference or first frame: 15.251019000 seconds]
    Frame Number: 29
    Frame Length: 48 bytes (384 bits)
    Capture Length: 48 bytes (384 bits)
    [Frame is marked: False]
    [Frame is ignored: False]
    [Protocols in frame: eth:ethertype:ecatf:ams]
Ethernet II, Src: 00:00:00_00:00:00 (00:00:00:00:00:00), Dst: 00:00:00_00:00:00 (00:00:00:00:00:00)
    Destination: 00:00:00_00:00:00 (00:00:00:00:00:00)
        .... ..0. .... .... .... .... = LG bit: Globally unique address (factory default)
        .... ...0 .... .... .... .... = IG bit: Individual address (unicast)
    Source: 00:00:00_00:00:00 (00:00:00:00:00:00)
        .... ..0. .... .... .... .... = LG bit: Globally unique address (factory default)
        .... ...0 .... .... .... .... = IG bit: Individual address (unicast)
    Type: EtherCAT frame (0x88a4)
    [Stream index: 0]
EtherCAT frame header
    .... .000 0010 0000 = Length: 0x020
    .... 0... .... .... = Reserved: Valid (0x0)
    0010 .... .... .... = Type: ADS (0x2)
AMS
    AMS Target Net Id: 39.120.71.102.1.1
    AMS Target port: 10000
    AMS Sender Net Id: 192.168.209.160.1.1
    AMS Sender port: 33031
    CmdId: ADS Read State (4)
    StateFlags: 0x0004
        .... .... .... ...0 = RESPONSE: Not set
        .... .... .... ..0. = NO RETURN: Not set
        .... .... .... .1.. = ADS COMMAND: Set
        .... .... .... 0... = SYSTEM COMMAND: Not set
        .... .... ...0 .... = HIGH PRIORITY COMMAND: Not set
        .... .... ..0. .... = TIMESTAMP ADDED: Not set
        .... .... .0.. .... = UDP COMMAND: Not set
        .... .... 0... .... = INIT COMMAND: Not set
        0... .... .... .... = BROADCAST: Not set
    cbData: 0
    ErrorCode: NO ERROR (0x00000000)
    InvokeId: 0x0000032d

0000  00 00 00 00 00 00 00 00 00 00 00 00 88 a4 20 20   ..............  
0010  27 78 47 66 01 01 10 27 c0 a8 d1 a0 01 01 07 81   'xGf...'........
0020  04 00 04 00 00 00 00 00 00 00 00 00 2d 03 00 00   ............-...

No.     Time           Source                Destination           Protocol Length Info
     30 15.251019      00:00:00_00:00:00     00:00:00_00:00:00     AMS      48     ADS Read State Request

Frame 30: 48 bytes on wire (384 bits), 48 bytes captured (384 bits)
    Encapsulation type: Ethernet (1)
    Arrival Time: May 10, 2180 10:30:44.795146688 Eastern Daylight Time
    UTC Arrival Time: May 10, 2180 14:30:44.795146688 UTC
    Epoch Arrival Time: 6638250644.795146688
    [Time shift for this packet: 0.000000000 seconds]
    [Time delta from previous captured frame: 0.000000000 seconds]
    [Time delta from previous displayed frame: 0.000000000 seconds]
    [Time since reference or first frame: 15.251019000 seconds]
    Frame Number: 30
    Frame Length: 48 bytes (384 bits)
    Capture Length: 48 bytes (384 bits)
    [Frame is marked: False]
    [Frame is ignored: False]
    [Protocols in frame: eth:ethertype:ecatf:ams]
Ethernet II, Src: 00:00:00_00:00:00 (00:00:00:00:00:00), Dst: 00:00:00_00:00:00 (00:00:00:00:00:00)
    Destination: 00:00:00_00:00:00 (00:00:00:00:00:00)
        .... ..0. .... .... .... .... = LG bit: Globally unique address (factory default)
        .... ...0 .... .... .... .... = IG bit: Individual address (unicast)
    Source: 00:00:00_00:00:00 (00:00:00:00:00:00)
        .... ..0. .... .... .... .... = LG bit: Globally unique address (factory default)
        .... ...0 .... .... .... .... = IG bit: Individual address (unicast)
    Type: EtherCAT frame (0x88a4)
    [Stream index: 0]
EtherCAT frame header
    .... .000 0010 0000 = Length: 0x020
    .... 0... .... .... = Reserved: Valid (0x0)
    0010 .... .... .... = Type: ADS (0x2)
AMS
    AMS Target Net Id: 192.168.209.160.1.1
    AMS Target port: 10000
    AMS Sender Net Id: 192.168.209.160.1.1
    AMS Sender port: 32941
    CmdId: ADS Read State (4)
    StateFlags: 0x0004
        .... .... .... ...0 = RESPONSE: Not set
        .... .... .... ..0. = NO RETURN: Not set
        .... .... .... .1.. = ADS COMMAND: Set
        .... .... .... 0... = SYSTEM COMMAND: Not set
        .... .... ...0 .... = HIGH PRIORITY COMMAND: Not set
        .... .... ..0. .... = TIMESTAMP ADDED: Not set
        .... .... .0.. .... = UDP COMMAND: Not set
        .... .... 0... .... = INIT COMMAND: Not set
        0... .... .... .... = BROADCAST: Not set
    cbData: 0
    ErrorCode: NO ERROR (0x00000000)
    InvokeId: 0x000006a5

0000  00 00 00 00 00 00 00 00 00 00 00 00 88 a4 20 20   ..............  
0010  c0 a8 d1 a0 01 01 10 27 c0 a8 d1 a0 01 01 ad 80   .......'........
0020  04 00 04 00 00 00 00 00 00 00 00 00 a5 06 00 00   ................

No.     Time           Source                Destination           Protocol Length Info
     31 15.260933      00:00:00_00:00:00     00:00:00_00:00:00     AMS      56     ADS Read State Response

Frame 31: 56 bytes on wire (448 bits), 56 bytes captured (448 bits)
    Encapsulation type: Ethernet (1)
    Arrival Time: May 10, 2180 10:30:44.805060688 Eastern Daylight Time
    UTC Arrival Time: May 10, 2180 14:30:44.805060688 UTC
    Epoch Arrival Time: 6638250644.805060688
    [Time shift for this packet: 0.000000000 seconds]
    [Time delta from previous captured frame: 0.009914000 seconds]
    [Time delta from previous displayed frame: 0.009914000 seconds]
    [Time since reference or first frame: 15.260933000 seconds]
    Frame Number: 31
    Frame Length: 56 bytes (448 bits)
    Capture Length: 56 bytes (448 bits)
    [Frame is marked: False]
    [Frame is ignored: False]
    [Protocols in frame: eth:ethertype:ecatf:ams]
Ethernet II, Src: 00:00:00_00:00:00 (00:00:00:00:00:00), Dst: 00:00:00_00:00:00 (00:00:00:00:00:00)
    Destination: 00:00:00_00:00:00 (00:00:00:00:00:00)
        .... ..0. .... .... .... .... = LG bit: Globally unique address (factory default)
        .... ...0 .... .... .... .... = IG bit: Individual address (unicast)
    Source: 00:00:00_00:00:00 (00:00:00:00:00:00)
        .... ..0. .... .... .... .... = LG bit: Globally unique address (factory default)
        .... ...0 .... .... .... .... = IG bit: Individual address (unicast)
    Type: EtherCAT frame (0x88a4)
    [Stream index: 0]
EtherCAT frame header
    .... .000 0010 1000 = Length: 0x028
    .... 0... .... .... = Reserved: Valid (0x0)
    0010 .... .... .... = Type: ADS (0x2)
AMS
    AMS Target Net Id: 192.168.209.160.1.1
    AMS Target port: 32941
    AMS Sender Net Id: 192.168.209.160.1.1
    AMS Sender port: 10000
    CmdId: ADS Read State (4)
    StateFlags: 0x0005
        .... .... .... ...1 = RESPONSE: Set
        .... .... .... ..0. = NO RETURN: Not set
        .... .... .... .1.. = ADS COMMAND: Set
        .... .... .... 0... = SYSTEM COMMAND: Not set
        .... .... ...0 .... = HIGH PRIORITY COMMAND: Not set
        .... .... ..0. .... = TIMESTAMP ADDED: Not set
        .... .... .0.. .... = UDP COMMAND: Not set
        .... .... 0... .... = INIT COMMAND: Not set
        0... .... .... .... = BROADCAST: Not set
    cbData: 8
    ErrorCode: NO ERROR (0x00000000)
    InvokeId: 0x000006a5
    ADS Read State Response
        Result: NO ERROR (0x00000000)
        AdsState: 0x000f
        DeviceState: 0x0001

0000  00 00 00 00 00 00 00 00 00 00 00 00 88 a4 28 20   ..............( 
0010  c0 a8 d1 a0 01 01 ad 80 c0 a8 d1 a0 01 01 10 27   ...............'
0020  04 00 05 00 08 00 00 00 00 00 00 00 a5 06 00 00   ................
0030  00 00 00 00 0f 00 01 00                           ........

No.     Time           Source                Destination           Protocol Length Info
     32 15.481142      00:00:00_00:00:00     00:00:00_00:00:00     AMS      56     ADS Read State Response

Frame 32: 56 bytes on wire (448 bits), 56 bytes captured (448 bits)
    Encapsulation type: Ethernet (1)
    Arrival Time: May 10, 2180 10:30:45.025269688 Eastern Daylight Time
    UTC Arrival Time: May 10, 2180 14:30:45.025269688 UTC
    Epoch Arrival Time: 6638250645.025269688
    [Time shift for this packet: 0.000000000 seconds]
    [Time delta from previous captured frame: 0.220209000 seconds]
    [Time delta from previous displayed frame: 0.220209000 seconds]
    [Time since reference or first frame: 15.481142000 seconds]
    Frame Number: 32
    Frame Length: 56 bytes (448 bits)
    Capture Length: 56 bytes (448 bits)
    [Frame is marked: False]
    [Frame is ignored: False]
    [Protocols in frame: eth:ethertype:ecatf:ams]
Ethernet II, Src: 00:00:00_00:00:00 (00:00:00:00:00:00), Dst: 00:00:00_00:00:00 (00:00:00:00:00:00)
    Destination: 00:00:00_00:00:00 (00:00:00:00:00:00)
        .... ..0. .... .... .... .... = LG bit: Globally unique address (factory default)
        .... ...0 .... .... .... .... = IG bit: Individual address (unicast)
    Source: 00:00:00_00:00:00 (00:00:00:00:00:00)
        .... ..0. .... .... .... .... = LG bit: Globally unique address (factory default)
        .... ...0 .... .... .... .... = IG bit: Individual address (unicast)
    Type: EtherCAT frame (0x88a4)
    [Stream index: 0]
EtherCAT frame header
    .... .000 0010 1000 = Length: 0x028
    .... 0... .... .... = Reserved: Valid (0x0)
    0010 .... .... .... = Type: ADS (0x2)
AMS
    AMS Target Net Id: 192.168.209.160.1.1
    AMS Target port: 33031
    AMS Sender Net Id: 39.120.71.102.1.1
    AMS Sender port: 10000
    CmdId: ADS Read State (4)
    StateFlags: 0x0005
        .... .... .... ...1 = RESPONSE: Set
        .... .... .... ..0. = NO RETURN: Not set
        .... .... .... .1.. = ADS COMMAND: Set
        .... .... .... 0... = SYSTEM COMMAND: Not set
        .... .... ...0 .... = HIGH PRIORITY COMMAND: Not set
        .... .... ..0. .... = TIMESTAMP ADDED: Not set
        .... .... .0.. .... = UDP COMMAND: Not set
        .... .... 0... .... = INIT COMMAND: Not set
        0... .... .... .... = BROADCAST: Not set
    cbData: 8
    ErrorCode: NO ERROR (0x00000000)
    InvokeId: 0x0000032d
    ADS Read State Response
        Result: NO ERROR (0x00000000)
        AdsState: 0x0005
        DeviceState: 0x0001

0000  00 00 00 00 00 00 00 00 00 00 00 00 88 a4 28 20   ..............( 
0010  c0 a8 d1 a0 01 01 07 81 27 78 47 66 01 01 10 27   ........'xGf...'
0020  04 00 05 00 08 00 00 00 00 00 00 00 2d 03 00 00   ............-...
0030  00 00 00 00 05 00 01 00                           ........

No.     Time           Source                Destination           Protocol Length Info
     33 20.261493      00:00:00_00:00:00     00:00:00_00:00:00     AMS      92     ADS Device Notification Request

Frame 33: 92 bytes on wire (736 bits), 92 bytes captured (736 bits)
    Encapsulation type: Ethernet (1)
    Arrival Time: May 10, 2180 10:30:49.805620688 Eastern Daylight Time
    UTC Arrival Time: May 10, 2180 14:30:49.805620688 UTC
    Epoch Arrival Time: 6638250649.805620688
    [Time shift for this packet: 0.000000000 seconds]
    [Time delta from previous captured frame: 4.780351000 seconds]
    [Time delta from previous displayed frame: 4.780351000 seconds]
    [Time since reference or first frame: 20.261493000 seconds]
    Frame Number: 33
    Frame Length: 92 bytes (736 bits)
    Capture Length: 92 bytes (736 bits)
    [Frame is marked: False]
    [Frame is ignored: False]
    [Protocols in frame: eth:ethertype:ecatf:ams]
Ethernet II, Src: 00:00:00_00:00:00 (00:00:00:00:00:00), Dst: 00:00:00_00:00:00 (00:00:00:00:00:00)
    Destination: 00:00:00_00:00:00 (00:00:00:00:00:00)
        .... ..0. .... .... .... .... = LG bit: Globally unique address (factory default)
        .... ...0 .... .... .... .... = IG bit: Individual address (unicast)
    Source: 00:00:00_00:00:00 (00:00:00:00:00:00)
        .... ..0. .... .... .... .... = LG bit: Globally unique address (factory default)
        .... ...0 .... .... .... .... = IG bit: Individual address (unicast)
    Type: EtherCAT frame (0x88a4)
    [Stream index: 0]
EtherCAT frame header
    .... .000 0100 1100 = Length: 0x04c
    .... 0... .... .... = Reserved: Valid (0x0)
    0010 .... .... .... = Type: ADS (0x2)
AMS
    AMS Target Net Id: 192.168.209.160.1.1
    AMS Target port: 33039
    AMS Sender Net Id: 39.120.71.102.1.1
    AMS Sender port: 132
    CmdId: ADS Device Notification (8)
    StateFlags: 0x0004
        .... .... .... ...0 = RESPONSE: Not set
        .... .... .... ..0. = NO RETURN: Not set
        .... .... .... .1.. = ADS COMMAND: Set
        .... .... .... 0... = SYSTEM COMMAND: Not set
        .... .... ...0 .... = HIGH PRIORITY COMMAND: Not set
        .... .... ..0. .... = TIMESTAMP ADDED: Not set
        .... .... .0.. .... = UDP COMMAND: Not set
        .... .... 0... .... = INIT COMMAND: Not set
        0... .... .... .... = BROADCAST: Not set
    cbData: 44
    ErrorCode: NO ERROR (0x00000000)
    InvokeId: 0x00000000
    ADS Device Notification Request
        CbLength: 40
        Count of Stamps: 1

0000  00 00 00 00 00 00 00 00 00 00 00 00 88 a4 4c 20   ..............L 
0010  c0 a8 d1 a0 01 01 0f 81 27 78 47 66 01 01 84 00   ........'xGf....
0020  08 00 04 00 2c 00 00 00 00 00 00 00 00 00 00 00   ....,...........
0030  28 00 00 00 01 00 00 00 60 38 de 9c 7d 18 dc 01   (.......`8..}...
0040  01 00 00 00 0f 00 00 00 10 00 00 00 01 00 00 00   ................
0050  0a 00 00 00 00 00 00 00 00 00 00 00               ............

No.     Time           Source                Destination           Protocol Length Info
     34 20.382154      00:00:00_00:00:00     00:00:00_00:00:00     AMS      48     ADS Read State Request

Frame 34: 48 bytes on wire (384 bits), 48 bytes captured (384 bits)
    Encapsulation type: Ethernet (1)
    Arrival Time: May 10, 2180 10:30:49.926281688 Eastern Daylight Time
    UTC Arrival Time: May 10, 2180 14:30:49.926281688 UTC
    Epoch Arrival Time: 6638250649.926281688
    [Time shift for this packet: 0.000000000 seconds]
    [Time delta from previous captured frame: 0.120661000 seconds]
    [Time delta from previous displayed frame: 0.120661000 seconds]
    [Time since reference or first frame: 20.382154000 seconds]
    Frame Number: 34
    Frame Length: 48 bytes (384 bits)
    Capture Length: 48 bytes (384 bits)
    [Frame is marked: False]
    [Frame is ignored: False]
    [Protocols in frame: eth:ethertype:ecatf:ams]
Ethernet II, Src: 00:00:00_00:00:00 (00:00:00:00:00:00), Dst: 00:00:00_00:00:00 (00:00:00:00:00:00)
    Destination: 00:00:00_00:00:00 (00:00:00:00:00:00)
        .... ..0. .... .... .... .... = LG bit: Globally unique address (factory default)
        .... ...0 .... .... .... .... = IG bit: Individual address (unicast)
    Source: 00:00:00_00:00:00 (00:00:00:00:00:00)
        .... ..0. .... .... .... .... = LG bit: Globally unique address (factory default)
        .... ...0 .... .... .... .... = IG bit: Individual address (unicast)
    Type: EtherCAT frame (0x88a4)
    [Stream index: 0]
EtherCAT frame header
    .... .000 0010 0000 = Length: 0x020
    .... 0... .... .... = Reserved: Valid (0x0)
    0010 .... .... .... = Type: ADS (0x2)
AMS
    AMS Target Net Id: 39.120.71.102.1.1
    AMS Target port: 10000
    AMS Sender Net Id: 192.168.209.160.1.1
    AMS Sender port: 33031
    CmdId: ADS Read State (4)
    StateFlags: 0x0004
        .... .... .... ...0 = RESPONSE: Not set
        .... .... .... ..0. = NO RETURN: Not set
        .... .... .... .1.. = ADS COMMAND: Set
        .... .... .... 0... = SYSTEM COMMAND: Not set
        .... .... ...0 .... = HIGH PRIORITY COMMAND: Not set
        .... .... ..0. .... = TIMESTAMP ADDED: Not set
        .... .... .0.. .... = UDP COMMAND: Not set
        .... .... 0... .... = INIT COMMAND: Not set
        0... .... .... .... = BROADCAST: Not set
    cbData: 0
    ErrorCode: NO ERROR (0x00000000)
    InvokeId: 0x0000032e

0000  00 00 00 00 00 00 00 00 00 00 00 00 88 a4 20 20   ..............  
0010  27 78 47 66 01 01 10 27 c0 a8 d1 a0 01 01 07 81   'xGf...'........
0020  04 00 04 00 00 00 00 00 00 00 00 00 2e 03 00 00   ................

No.     Time           Source                Destination           Protocol Length Info
     35 20.382154      00:00:00_00:00:00     00:00:00_00:00:00     AMS      48     ADS Read State Request

Frame 35: 48 bytes on wire (384 bits), 48 bytes captured (384 bits)
    Encapsulation type: Ethernet (1)
    Arrival Time: May 10, 2180 10:30:49.926281688 Eastern Daylight Time
    UTC Arrival Time: May 10, 2180 14:30:49.926281688 UTC
    Epoch Arrival Time: 6638250649.926281688
    [Time shift for this packet: 0.000000000 seconds]
    [Time delta from previous captured frame: 0.000000000 seconds]
    [Time delta from previous displayed frame: 0.000000000 seconds]
    [Time since reference or first frame: 20.382154000 seconds]
    Frame Number: 35
    Frame Length: 48 bytes (384 bits)
    Capture Length: 48 bytes (384 bits)
    [Frame is marked: False]
    [Frame is ignored: False]
    [Protocols in frame: eth:ethertype:ecatf:ams]
Ethernet II, Src: 00:00:00_00:00:00 (00:00:00:00:00:00), Dst: 00:00:00_00:00:00 (00:00:00:00:00:00)
    Destination: 00:00:00_00:00:00 (00:00:00:00:00:00)
        .... ..0. .... .... .... .... = LG bit: Globally unique address (factory default)
        .... ...0 .... .... .... .... = IG bit: Individual address (unicast)
    Source: 00:00:00_00:00:00 (00:00:00:00:00:00)
        .... ..0. .... .... .... .... = LG bit: Globally unique address (factory default)
        .... ...0 .... .... .... .... = IG bit: Individual address (unicast)
    Type: EtherCAT frame (0x88a4)
    [Stream index: 0]
EtherCAT frame header
    .... .000 0010 0000 = Length: 0x020
    .... 0... .... .... = Reserved: Valid (0x0)
    0010 .... .... .... = Type: ADS (0x2)
AMS
    AMS Target Net Id: 192.168.209.160.1.1
    AMS Target port: 10000
    AMS Sender Net Id: 192.168.209.160.1.1
    AMS Sender port: 32941
    CmdId: ADS Read State (4)
    StateFlags: 0x0004
        .... .... .... ...0 = RESPONSE: Not set
        .... .... .... ..0. = NO RETURN: Not set
        .... .... .... .1.. = ADS COMMAND: Set
        .... .... .... 0... = SYSTEM COMMAND: Not set
        .... .... ...0 .... = HIGH PRIORITY COMMAND: Not set
        .... .... ..0. .... = TIMESTAMP ADDED: Not set
        .... .... .0.. .... = UDP COMMAND: Not set
        .... .... 0... .... = INIT COMMAND: Not set
        0... .... .... .... = BROADCAST: Not set
    cbData: 0
    ErrorCode: NO ERROR (0x00000000)
    InvokeId: 0x000006a6

0000  00 00 00 00 00 00 00 00 00 00 00 00 88 a4 20 20   ..............  
0010  c0 a8 d1 a0 01 01 10 27 c0 a8 d1 a0 01 01 ad 80   .......'........
0020  04 00 04 00 00 00 00 00 00 00 00 00 a6 06 00 00   ................

No.     Time           Source                Destination           Protocol Length Info
     36 20.392089      00:00:00_00:00:00     00:00:00_00:00:00     AMS      56     ADS Read State Response

Frame 36: 56 bytes on wire (448 bits), 56 bytes captured (448 bits)
    Encapsulation type: Ethernet (1)
    Arrival Time: May 10, 2180 10:30:49.936216688 Eastern Daylight Time
    UTC Arrival Time: May 10, 2180 14:30:49.936216688 UTC
    Epoch Arrival Time: 6638250649.936216688
    [Time shift for this packet: 0.000000000 seconds]
    [Time delta from previous captured frame: 0.009935000 seconds]
    [Time delta from previous displayed frame: 0.009935000 seconds]
    [Time since reference or first frame: 20.392089000 seconds]
    Frame Number: 36
    Frame Length: 56 bytes (448 bits)
    Capture Length: 56 bytes (448 bits)
    [Frame is marked: False]
    [Frame is ignored: False]
    [Protocols in frame: eth:ethertype:ecatf:ams]
Ethernet II, Src: 00:00:00_00:00:00 (00:00:00:00:00:00), Dst: 00:00:00_00:00:00 (00:00:00:00:00:00)
    Destination: 00:00:00_00:00:00 (00:00:00:00:00:00)
        .... ..0. .... .... .... .... = LG bit: Globally unique address (factory default)
        .... ...0 .... .... .... .... = IG bit: Individual address (unicast)
    Source: 00:00:00_00:00:00 (00:00:00:00:00:00)
        .... ..0. .... .... .... .... = LG bit: Globally unique address (factory default)
        .... ...0 .... .... .... .... = IG bit: Individual address (unicast)
    Type: EtherCAT frame (0x88a4)
    [Stream index: 0]
EtherCAT frame header
    .... .000 0010 1000 = Length: 0x028
    .... 0... .... .... = Reserved: Valid (0x0)
    0010 .... .... .... = Type: ADS (0x2)
AMS
    AMS Target Net Id: 192.168.209.160.1.1
    AMS Target port: 32941
    AMS Sender Net Id: 192.168.209.160.1.1
    AMS Sender port: 10000
    CmdId: ADS Read State (4)
    StateFlags: 0x0005
        .... .... .... ...1 = RESPONSE: Set
        .... .... .... ..0. = NO RETURN: Not set
        .... .... .... .1.. = ADS COMMAND: Set
        .... .... .... 0... = SYSTEM COMMAND: Not set
